:020000040802F0
:10000000B00600203D020208F12E0208E92E020887
:10001000ED2E0208212E0208112F02080000000018
:100020000000000000000000000000000D2F02088A
:10003000E72E020800000000F32E02080F2F02082E
:100040005702020857020208570202085702020824
:100050005702020857020208570202085702020814
:100060005702020857020208570202085702020804
:1000700057020208570202085702020857020208F4
:1000800057020208570202085702020857020208E4
:10009000F305020857020208570202085702020835
:1000A00057020208570202085702020857020208C4
:1000B00057020208570202085702020857020208B4
:1000C00057020208570202085702020857020208A4
:1000D000570202081D0B02085702020857020208C5
:1000E0005702020857020208570202085702020884
:1000F0005702020857020208570202085702020874
:100100005702020857020208570202085702020863
:100110005702020857020208570202085702020853
:100120005702020857020208570202085702020843
:100130005702020857020208570202085702020833
:10014000570202081D060208570202085702020859
:100150005702020857020208570202085702020813
:100160005702020857020208570202085702020803
:1001700057020208570202085702020857020208F3
:10018000570202085702020800F002F800F047F890
:100190000AA090E8000C82448344AAF10107DA45E2
:1001A00001D100F03CF8AFF2090EBAE80F0013F0ED
:1001B000010F18BFFB1A43F001031847C83B0000AA
:1001C000E83B0000103A24BF78C878C1FAD852073B
:1001D00024BF30C830C144BF04680C6070470000C1
:1001E0000023002400250026103A28BF78C1FBD840
:1001F000520728BF30C148BF0B607047642902F026
:10020000CF83752902F0CC83782902F00384002083
:1002100070471FB503F092FC1FBD10B510BD02F072
:10022000D0FD1146FFF7F5FF02F09EFE02F0EEFD55
:1002300003B4FFF7F2FF03BC02F073FE09488047E6
:1002400009480047FEE7FEE7FEE7FEE7FEE7FEE7B8
:10025000FEE7FEE7FEE7FEE704480549054A064BD0
:10026000704700005903020889010208B00000200D
:10027000B0060020B0020020B00200200CB5002023
:10028000019000907548006840F480307349086020
:1002900000BF7248006800F4003000900198401CD4
:1002A0000190009818B90198B0F5A04FF1D16B48B2
:1002B000006800F4003010B10120009001E000203F
:1002C00000900098012846D164484030006840F012
:1002D00080506249403108606148006840F4404005
:1002E0005F4908605D48083000685C490831086073
:1002F0000846006840F4004008600846006840F482
:10030000A05008605748091F0860081F006840F0A7
:100310008070091F086000BF5048006800F000703E
:100320000028F9D040F205704F4908604B4808306A
:10033000006820F003004949083108600846006859
:1003400040F00200086000BF44480830006800F038
:100350000C000828F8D10CBD10B54448006840F4E2
:100360007000424908603D48006840F001003B4988
:1003700008600020394908310860384800683C4965
:100380000840364908603B48091D0860081F00689E
:1003900020F48020091F0860002030490C310860DB
:1003A000FFF76CFF344831498039086010BD70B5E3
:1003B00000200022022300240221284D08352D6848
:1003C00005F00C0020B1042806D0082834D107E03D
:1003D0002A4D2B4E356033E02A4D294E35602FE0F3
:1003E0001E4D2D1D2D68C5F380541C4D2D1D2D68EF
:1003F00005F03F0154B1234DB5FBF1F5174E361D05
:100400003668C6F3881605FB06F209E01B4DB5FBFE
:10041000F1F5124E361D3668C6F3881605FB06F256
:100420000E4D2D1D2D68C5F301456D1C6B00B2FBF3
:10043000F3F5134E356003E0104D114E356000BFEB
:1004400000BF064D08352D68C5F303150E4E705DCF
:100450000B4D2D68C5400A4E356070BD0038024016
:100460000070004008544007003C024088ED00E066
:10047000FFFFF6FE10300024000002080024F40004
:100480000400002000127A00080000201FB5044676
:10049000012C04D0022C02D0012004B010BD002099
:1004A0008DF80B0001208DF80C000020ADF8000045
:1004B000ADF80200ADF80400ADF8060001208DF89B
:1004C0000D00012C05D100208DF80A00ADF80800C0
:1004D00005E00E208DF80A000120ADF808006846FE
:1004E00001F0B3FD0020D8E72DE9FF4105460E4697
:1004F00090461F46012D05D0022D03D0012004B0E7
:10050000BDE8F081012D03D10D2E01DD0120F6E7BC
:10051000022D05D10E2E01DB1B2E01DD0120EEE7A1
:100520008DF80A6001208DF80B008DF80C00444610
:10053000E40044F00404200CADF80000A0B2ADF8D3
:1005400002003C46E40044F00404200CADF8040032
:10055000A0B2ADF80600012D03D10020ADF80800CF
:1005600002E00120ADF8080001208DF80D0068467A
:1005700001F06BFD0020C2E72DE9F04186B0044692
:100580000E46154698460C9F012C05D0022C03D030
:10059000012006B0BDE8F081082F01DD0120F8E759
:1005A000012D03D0022D01D00120F2E7012D04D14D
:1005B00000208DF80C00019603E004208DF80C005B
:1005C000029600208DF80D008DF80E703A464146D7
:1005D0000DF10F0001F0CCFB012C04D101A9BC48A6
:1005E00001F022FE03E001A9BA4801F01DFE00203F
:1005F000CFE710B586B001AA0021B54801F009FF88
:100600009DF80C0008B9019C00E0029C0DF10F025E
:100610002146012002F006FC06B010BD10B586B0E0
:1006200001AA0121AB4801F0F4FE9DF80C0008B9C5
:10063000019C00E0029C0DF10F022146022002F015
:10064000F1FB06B010BD10B50446012C03D0022CFE
:1006500001D0012010BD012C0BD1002202219C48A9
:1006600001F0F2FF9A4801F04DFC00209A49087011
:100670000AE000221021974801F0E6FF954801F0BA
:1006800041FC0020954908709348007830B99348A0
:10069000007818B90221924800F03EFC0020D9E70A
:1006A00070B58AB005460C46012D04D0022D02D04B
:1006B00001200AB070BDFA2C07D0B4F5FA7F04D03F
:1006C000B4F57A7F01D00120F3E74FF47A7004FB90
:1006D00000F60121042000F03FFE022008908DF872
:1006E000250001208DF8240000208DF826008DF8CB
:1006F000270008A97A4800F091FB0221784800F011
:1007000009FC012D71D10121084600F025FE0121CF
:10071000480600F06AFE09220B21724800F009FC2D
:1007200009220C216F4800F004FC4FF4C0500890DF
:1007300002208DF8250000208DF8260002208DF87B
:10074000240001208DF8270008A9664800F066FB08
:1007500001A800F030FD5E4801F0D4FB05A801F0CF
:10076000F5FC00208DF81A0001208DF81B000020F8
:100770008DF81C008DF81D008DF81E008DF81F00EF
:100780008DF816008DF8170006208DF8180005204A
:100790008DF81900C6EBC60149000398B0FBF1F0D3
:1007A00080B2ADF8140005A9494801F0C4FB08B9AE
:1007B00001207EE701220221454801F045FF142077
:1007C0008DF8000003208DF801008DF80200012053
:1007D0008DF80300684600F030FA0120FFF756FE5E
:1007E00001203D49087071E0FFE70121022000F07F
:1007F000B3FD01214FF0C06000F0F7FD09220D218B
:10080000394800F096FB09220C21374800F091FB93
:100810004FF44050089002208DF8250000208DF8FC
:10082000260002208DF8240001208DF8270008A959
:100830002D4800F0F3FA01A800F0BDFC254801F0B6
:1008400061FB05A801F082FC00208DF81A00012050
:100850008DF81B0000208DF81C008DF81D008DF810
:100860001E008DF81F008DF816008DF81700062069
:100870008DF8180005208DF81900C6EBC601490057
:100880000398B0FBF1F080B2ADF8140005A911484F
:1008900001F051FB08B901200BE7012210210D489E
:1008A00001F0D2FE41208DF8000003208DF80100F8
:1008B0008DF8020001208DF80300684600F0BDF9B4
:1008C0000220FFF7E3FD0120044908700020F0E654
:1008D000006400400068004018000020190000205B
:1008E0000008024000000240000402401CB5012143
:1008F0001E2000F031FD4FF44040009001208DF8A3
:10090000040000208DF806008DF8070003208DF804
:1009100005006946424800F081FA04200090012059
:100920008DF8040000208DF806008DF807000320E4
:100930008DF8050069463B4800F070FA4FF44060BE
:10094000009001208DF8040000208DF806008DF83D
:10095000070003208DF805006946334800F05EFA71
:100960004FF40040009000208DF8040002208DF824
:10097000050069462D4800F051FA0820009000203B
:100980008DF8040002208DF805006946264800F025
:1009900045FA0421234800F0BDFA4FF440412048B5
:1009A00000F0BAFA4FF480611F4800F0B5FA4FF436
:1009B00000611D4800F0B0FA1CBD70B505460C463C
:1009C000012D0AD124B9C103154800F0A3FA04E0AF
:1009D0004FF40041124800F09FFA022D0AD124B9C9
:1009E00069030F4800F096FA04E04FF480410C4888
:1009F00000F092FA70BD10B54FF400410B4800F0C2
:100A00006FFA04460CB9012010BD0020FCE710B5B8
:100A10000821054800F064FA0446204610BD000095
:100A20000004024000080240000C02400010024096
:100A300010B588B004460121084600F08DFC012164
:100A4000102000F0E3FC072209213D4800F071FA74
:100A500007220A213A4800F06CFA4FF4C060069071
:100A600002208DF81C008DF81D0000208DF81E005E
:100A700001208DF81F0006A9314800F0CFF902943B
:100A80000020ADF80C00ADF80E00ADF81000ADF888
:100A900014000C20ADF8120002A92A4800F017FE3D
:100AA0000121284800F09BFE4021264800F07FFFEE
:100AB000012240F22551234800F047FF25208DF800
:100AC000040003208DF805008DF8060001208DF844
:100AD000070001A800F0B1F8002008B010BD10B563
:100AE000002240F22551174800F02FFF154800F072
:100AF00087FD0021102000F089FC002010BD10B5FA
:100B0000044600BF0F48008800F040000028F9D0DC
:100B100021460C4800F08EFE002010BD08B540F2C2
:100B20002551084800F04CFF40B1064800F086FE11
:100B3000C0B200900121684602F0DCF908BD000057
:100B4000000002400010014010B5FFF705FC10BD89
:100B500070B505466FF0040000F0BCF815240C4891
:100B6000B0FBF5F04443B4F1807F01D36FF07F44D4
:100B70004FF0E020006940F002004FF0E0210861F2
:100B800008464461006940F00100086170BD000042
:100B900040420F001CB50121082000F0DDFB4FF49E
:100BA0008040009001208DF8040000208DF80600A0
:100BB0008DF8070003208DF8050069461A4800F0FB
:100BC0002DF94FF48041184800F0A6F91CBD10B56E
:100BD0001648007828B14FF48041134800F09CF982
:100BE00004E04FF48041104800F094F90F48007879
:100BF00008B9012000E000200C49087010BD10B5B4
:100C0000044645F2555001F075FE032001F075FED3
:100C1000204601F075FE01F076FE01F079FE10BD70
:100C200010B501F070FE10BD000C02401A0000204B
:100C300032490143324A1160704770B500210023E8
:100C40000F22C4781CB32E4C246804F4E064C4F56D
:100C5000E064C4F30721C1F10404E3B20A4144781B
:100C60009C40E1B28478144021430C07210E254CAE
:100C700005786155047804F01F050124AC4005781F
:100C80006D11AD0005F1E025C5F8004109E00478DB
:100C900004F01F050124AC401B4D0678761145F881
:100CA000264070BD194A0A400243154B1B1F1A60AB
:100CB000704739B1124A121D12680243104B1B1DB6
:100CC0001A6006E00E4A121D126882430C4B1B1D6F
:100CD0001A607047042808D14FF0E021096941F0FB
:100CE00004014FF0E022116107E04FF0E0210969B3
:100CF00021F004014FF0E022116170470000FA0575
:100D00000CED00E000E400E080E100E080FFFF1F68
:100D100010B504469848844208D10121084600F0E5
:100D200086FB0021012000F082FB76E0934884429C
:100D300008D10121022000F07AFB0021022000F0FE
:100D400076FB6AE08E48844208D10121042000F03D
:100D50006EFB0021042000F06AFB5EE089488442BB
:100D600008D10121082000F062FB0021082000F0DA
:100D70005EFB52E08448844208D10121102000F03B
:100D800056FB0021102000F052FB46E07F488442D1
:100D900008D10121202000F04AFB0021202000F092
:100DA00046FB3AE07A48844208D10121402000F015
:100DB0003EFB0021402000F03AFB2EE075488442C3
:100DC00008D10121802000F032FB0021802000F0BA
:100DD0002EFB22E07048844208D10121801500F0EA
:100DE00026FB0021A01500F022FB16E06B48844290
:100DF00008D10121401500F01AFB0021601500F018
:100E000016FB0AE06648844207D10121001500F074
:100E10000EFB0021201500F00AFB10BDF0B50A46BC
:100E200000210023002400BF3DE0012505FA01F365
:100E3000156805EA03049C4234D105684F00032677
:100E4000BE40B543056015794E00B5400668354390
:100E500005601579012D02D01579022D16D185680E
:100E60004F000326BE40B543856055794E00B5401E
:100E7000866835438560456801268E40B5434560E8
:100E8000456896798E40B6B235434560C5684F00D7
:100E90000326BE40B543C560D5794E00B540C6684F
:100EA0003543C560491C1029BFD3F0BD4FF6FF7113
:100EB00001600021017141718171C171704708B5F4
:100EC0004FF480320092009A0A430092009AC26165
:100ED000C161009AC261C2690092C269009208BDF4
:100EE0000246002013690B400BB1012000E00020F6
:100EF00070470146086980B2704702460020536976
:100F00000B400BB1012000E000207047014648690A
:100F100080B2704701837047418370470AB10183F3
:100F200000E0418370474161704742694A40426135
:100F30007047F0B5002300244D07ED0E02FA05F3CB
:100F4000CE1000F1200555F826504E07F70E0F265B
:100F5000BE40B543CF1000F1200646F82750CE1012
:100F600000F1200555F8265045EA0304CE1000F1A3
:100F7000200545F82640F0BD000002400004024074
:100F800000080240000C0240001002400014024021
:100F900000180240001C02400020024000240240D1
:100FA00000280240F948006840F00100F749086055
:100FB0000020F64908310860F4480068F449084008
:100FC000F2490860F348091D0860F348EF4984318D
:100FD0000860F0481038091D0860EC48006820F4EB
:100FE0008020EA4908600020E8490C310860E749A0
:100FF0008C31086070470021E44A921C1170114640
:101000000870704710B501460022002300204A11E5
:10101000012A02D1DD4C236808E0022A03D1DB4C0F
:101020007034236802E0D94C7434236801F01F0245
:10103000012494401C400CB1012000E0002010BDB0
:1010400038B5002000900024002500BF3120FFF7B4
:10105000D9FF05460098401C00900098B0F5A04FBD
:1010600001D0002DF2D03120FFF7CCFF08B10124D0
:1010700000E00024204638BD01460020C34A106825
:1010800020F0F80040EAC10010607047C3490860D2
:1010900070470021BD4A703211701170012802D0D2
:1010A00004280AD104E00121B84A7032117005E029
:1010B0000521B64A7032117000E000BF00BF7047D2
:1010C000B7490860704770B5049C41EA8215012653
:1010D000C6EB530645EA0645054345EA0465AB4EB3
:1010E000361D356070BDAD4908667047820142EA21
:1010F0000172A64B84331A607047A849886670470E
:1011000010B5830143EA016343EA02739F4C8834BC
:10111000236010BDA14908677047A049C8647047A3
:1011200002460020994B0833186820F0EC6042EA30
:1011300001031843954B083318607047024600209E
:10114000924B0833186820F0784042EA01031843B4
:101150008E4B083318607047014600208B4A0832D6
:10116000106820F00300084310607047874808307B
:10117000006800F00C00704701460020834A0832E6
:10118000106820F0F000084310607047014600200E
:101190007E4A0832106820F4E0500843106070471F
:1011A00001460020794A0832106820F4604040EA85
:1011B000C10010607047F0B5002100220024022514
:1011C00000260223714F08373F6807F00C0121B158
:1011D000042905D0082937D105E0724F076036E0B1
:1011E000714F076033E0694F3F1D3F68C7F380567A
:1011F000664F3F1D3F6807F03F036EB16A4FB7FB74
:10120000F3F7DFF888C10CF1040CDCF800C0CCF374
:10121000881C07FB0CF40CE0624FB7FBF3F7DFF818
:101220006CC10CF1040CDCF800C0CCF3881C07FB8B
:101230000CF4564F3F1D3F68C7F301477F1C7D00EC
:10124000B4FBF5F7076002E0564F076000BF00BF30
:101250004E4F08373F6807F0F0010909534F7A5C99
:101260000768D7404760494F08373F6807F4E051A7
:10127000890A4E4F7A5C4768D7408760434F0837EA
:101280003F6807F46041490B484F7A5C4768D74094
:10129000C760F0BD002100F44072B2F5407F0AD172
:1012A0003A4A0832116821F4F811414A02401143C8
:1012B000364A08321160354A70321268C0F30B03A7
:1012C0001A43324B70331A6070473549443908600D
:1012D00070473349403908607047364908607047A5
:1012E00001460020294A8C32106820F01F004A1E57
:1012F0001043264A8C321060704701460020234A72
:101300008C32106820F4F8504A1E40EA02201F4A2E
:101310008C3210607047014600201C4A8C321068E5
:1013200020F4401008431060704701460020174A1F
:101330008C32106820F4400008431060704701466A
:101340000020124A8C32106820F4403008431060AC
:10135000704719490860704739B10C4A3032126839
:1013600002430A4B30331A6006E0084A30321268F2
:101370008243064B30331A607047F9B1034A343266
:1013800012680243014B34331A601CE000380240FB
:10139000FFFFF6EA10300024003000200000474232
:1013A000800E47420024F40000127A001B00002047
:1013B000FFFCFF0F5C014742E01147428F4A126871
:1013C00082438E4B1A60704739B18C4A121D1268E5
:1013D00002438A4B1B1D1A6006E0884A121D1268E0
:1013E0008243864B1B1D1A60704739B1834A0C3209
:1013F00012680243814B0C331A6006E07F4A0C32BC
:10140000126882437D4B0C331A60704739B17B4AB6
:10141000103212680243794B10331A6006E0774AA3
:10142000103212688243754B10331A60704739B11D
:10143000724A243A12680243704B243B1A6006E059
:101440006E4A243A126882436C4B243B1A60704700
:1014500039B16A4A203A12680243684B203B1A604D
:1014600006E0664A203A12688243644B203B1A60C9
:10147000704739B1614A1C3A126802435F4B1C3B0A
:101480001A6006E05D4A1C3A126882435B4B1C3BC3
:101490001A60704739B1594A143A12680243574BDF
:1014A000143B1A6006E0554A143A12688243534BC3
:1014B000143B1A60704739B1504A103A126802431F
:1014C0004E4B103B1A6006E04C4A103A12688243B9
:1014D0004A4B103B1A60704739B1484A1C321268B7
:1014E0000243464B1C331A6006E0444A1C32126821
:1014F0008243424B1C331A60704739B13F4A203255
:10150000126802433D4B20331A6006E03B4A20320A
:1015100012688243394B20331A60704739B1374A19
:10152000243212680243354B24331A6006E0334AF2
:10153000243212688243314B24331A60704739B128
:101540002E4A2C32126802432C4B2C331A6006E0D0
:101550002A4A2C3212688243284B2C331A60704777
:1015600039B1264A303212680243244B30331A60B4
:1015700006E0224A303212688243204B30331A6030
:101580007047012808D11D493C31096841F0080124
:101590001A4A3C32116007E018493C31096821F0D1
:1015A0000801164A3C321160704739B1134A273A94
:1015B00012780243114B273B1A7006E00F4A273A74
:1015C000127882430D4B273B1A7070470B4840300E
:1015D000006840F08070094940310860704701465A
:1015E0000020064A283A12680A400AB1012000E0A9
:1015F000002070470149263908707047343802408E
:1016000010B50446FA48844208D101211020FFF7A2
:1016100052FF00211020FFF74EFF57E0F5488442AB
:1016200009D101214804FFF735FF00214FF40030B4
:10163000FFF730FF4AE0F048844209D101218804D5
:10164000FFF728FF00214FF48020FFF723FF3DE044
:10165000EA48844209D10121C804FFF71BFF002199
:101660004FF40020FFF716FF30E0E548844209D12F
:1016700001210805FFF70EFF00214FF48010FFF74E
:1016800009FF23E0DF48844208D101212020FFF731
:1016900012FF00212020FFF70EFF17E0DA488442F6
:1016A00009D101218807FFF7F5FE00214FF08040A6
:1016B000FFF7F0FE0AE0D548844207D1012140053A
:1016C000FFF7E8FE00216005FFF7E4FE10BD2DE9FD
:1016D000FF4705460E460024A14600BFA046B0893C
:1016E00000B100BF2C8A24F44054F08804432C82BB
:1016F000AC8941F20C608443B08831890843718918
:1017000008430443AC81AC8A24F44074B089044398
:10171000AC826846FFF74FFDB548854202D0B94814
:10172000854202D1DDF80C9001E0DDF80890A8892F
:1017300000F4004040B109EBC90000EB091031682A
:101740004900B0FBF1F707E009EBC90000EB091015
:1017500031688900B0FBF1F76420B7FBF0F00401B9
:101760002009642101FB1078A88900F4004040B1F1
:10177000322000EBC800B0FBF1F000F0070004439A
:1017800008E0322000EB08106421B0FBF1F000F01B
:101790000F0004432C81BDE8FF874FF41651016010
:1017A00000218180C18001810C2141810021818142
:1017B000704710B502460020108A20F470600B8834
:1017C0004C8823438C882343CC88234318431082BE
:1017D00010BD0021018041808180C180704721B10E
:1017E000828942F40052828104E082894DF6FF73BF
:1017F0001A4082817047028B02F47F420283028B7F
:101800000A430283704721B1828942F400428281F7
:1018100003E08289C2F30E028281704721B1828A7D
:1018200042F40062828204E0828A4FF2FF731A401F
:1018300082827047C1F3080282807047014688881F
:10184000C0F308007047028A4FF6F0731A40028214
:10185000028A0A430282704721B1828942F0020261
:10186000828104E082894FF6FD731A4082817047BD
:1018700082894FF2FF731A40828182890A438281F2
:101880007047028A4FF6DF731A400282028A0A43C7
:101890000282704721B1028A42F48042028204E04F
:1018A000028A4BF6FF731A4002827047818941F029
:1018B00001018181704721B1828A42F0080282824F
:1018C00004E0828A4FF6F7731A4082827047028BD7
:1018D000D2B20283028B42EA01220283704721B115
:1018E000828A42F02002828204E0828A4FF6DF730D
:1018F0001A408282704721B1828A42F010028282AD
:1019000004E0828A4FF6EF731A4082827047828A1F
:101910004FF6FB731A408282828A0A4382827047A2
:1019200021B1828A42F00202828204E0828A4FF66A
:10193000FD731A40828270471AB1838A0B438382F7
:1019400002E0838A8B4383827047F0B5034600240C
:1019500000260025002040F66A17B94200D100BFDA
:101960001846C1F3421401F01F06012707FA06F5D5
:10197000012C01D10C3004E0022C01D1103000E028
:1019800014301AB107682F43076002E00768AF43BD
:101990000760F0BD02460020B1F5007F00D100BF16
:1019A00013880B400BB1012000E00020704701F4C8
:1019B0000072B2F5007F00D100BFCA4302807047B9
:1019C00070B50246002400230025002040F66A1668
:1019D000B14200D100BFC1F3421501F01F0301263F
:1019E00006FA03F3012D13D19689334017E0000066
:1019F000001001400044004000480040004C0040FE
:101A0000005000400014014000780040007C00407D
:101A1000022D02D1168A334001E0968A33400C121F
:101A2000012606FA04F41688344013B10CB10120E3
:101A300000E0002070BD10B50022002340F66A14BB
:101A4000A14200D100BF0A1201249440A3B2DC439A
:101A5000048010BD10B502460B460020002104E0B2
:101A6000545C0444E0B24C1CA1B29942F8DB10BDB6
:101A700010B502460B460020002103E0545C604094
:101A80004C1CA1B29942F9DB10BD0246002003E0D4
:101A9000FF231354431C98B28842F9DB7047024677
:101AA000002003E000231354431C98B28842F9DB62
:101AB000704770B5ADF5007D05460E464FF40072D7
:101AC000F949684601F06EF84FF6FF7407E0287890
:101AD0006040C0B23DF8100080EA24246D1C300044
:101AE000A6F101018EB2F2D14FF6FF7044402046BC
:101AF0000DF5007D70BD70B502460020002418E091
:101B000012F8016B80EA062000230EE000F4004585
:101B10002DB141F2210585EA4005A8B203E04FF658
:101B2000FF7505EA40005D1CEBB2082BEEDB651C7F
:101B3000ACB28C42E4DB70BD70B5002418E011F843
:101B4000016B80EA062000230EE000F400452DB171
:101B500041F2210585EA4005A8B203E04FF6FF7582
:101B600005EA40005D1CEBB2082BEEDB651CACB255
:101B70009442E4DB70BD0246002007E0521C431C87
:101B8000D8B219B1884201DD002002E01378002BA1
:101B9000F4D100BF7047002105E0002200E0521C94
:101BA000C82AFCD3491C8142F7D37047F0B50546DB
:101BB0000C4616460022002100200FE05718F75D62
:101BC00015F801C0674506D14F1CB9B2A14205D135
:101BD0005718B8B207E0571CBAB20021A14202DA86
:101BE00017199F42EADD00BFF0BD10B502460B4653
:101BF000012000210EE0545C412C02DB545C5A2C85
:101C000006DD545C612C02DB545C7A2C00DD03E0C1
:101C10004C1CE1B29942EEDB00BF994200D000209B
:101C200010BD10B502460B460120002114E0545CA3
:101C3000412C02DB545C5A2C0CDD545C612C02DB21
:101C4000545C7A2C06DD545C302C02DB545C392C5D
:101C500000DD03E04C1CE1B29942E8DB00BF994291
:101C600000D0002010BD10B502460B460120002117
:101C700008E0545C302C02DB545C392C00DD03E0BE
:101C80004C1CE1B29942F4DB00BF994200D0002025
:101C900010BD10B502460B46012000210BE0545C3C
:101CA000302C02DB545C392C03DD545C2E2C00D02C
:101CB00003E04C1CE1B29942F1DB00BF994200D035
:101CC000002010BD10B502460B460120002114E093
:101CD000545C302C02DB545C392C0CDD545C412C00
:101CE00002DB545C5A2C06DD545C612C02DB545C34
:101CF0007A2C00DD03E04C1CE1B29942E8DB00BF26
:101D0000994200D0002010BD10B502460B460120BC
:101D1000002117E0545C302C02DB545C392C0FDDC1
:101D2000545C412C02DB545C5A2C09DD545C612C60
:101D300002DB545C7A2C03DD545C2E2C00D003E0D3
:101D40004C1CE1B29942E5DB00BF994200D0002073
:101D500010BD0146C8B2C1F3072202EB0020C1F357
:101D6000074202EB00200A0E60F31F221046704764
:101D700010B50346002003E00C5C1C54441CA0B2C8
:101D80009042F9DB10BD70B503460C4601200021DE
:101D900007E05D5C665CB54201D0002003E04D1CAD
:101DA000A9B29142F5DB00BF70BD02460020302A87
:101DB00005DB392A03DCA2F13003D8B20EE0412A58
:101DC00005DB462A03DCA2F13703D8B206E0612A1C
:101DD00004DB662A02DCA2F15703D8B20307180E0F
:101DE000302906DB392904DCA1F130030343D8B2E2
:101DF00010E0412906DB462904DCA1F13703034347
:101E0000D8B207E0612905DB662903DCA1F157039D
:101E10000343D8B270472DE9F04105460E461746F8
:101E20004FEA6608002409E06200521CA95C15F81C
:101E30001400FFF7BAFF3855601C84B24445F3DB49
:101E40004046BDE8F081F0B585B005460E46144623
:101E5000142216A1684600F0A5FE002710E028789D
:101E6000694601EB2010007804F8010B287800F097
:101E70000F001DF8000004F8010B6D1C781C87B2E0
:101E8000B742ECDB4FF6FF7000EA460005B0F0BD4C
:101E900001460A7810064A7840EA02408A7840EA09
:101EA0000220CA7810437047483B02083031323371
:101EB0003435363738394142434445460000000046
:101EC0000A0E02700A0C42700A0A8270C1707047D2
:101ED00008B569460278CA7042788A7082784A707A
:101EE000C2780A709DED000A08BD01B52DED020B08
:101EF0006946CA7802708A7842704A7882700A7895
:101F0000C2700EBD10B50446FE48844209D10121BD
:101F10004806FFF7BFFA00214FF00070FFF7BAFA4A
:101F200008E001218806FFF7B5FA00214FF0806034
:101F3000FFF7B0FA10BD30B5024600200023146848
:101F400024F002041460146844F00104146000E0FA
:101F50005B1C546804F001041CB94FF6FF74A342E3
:101F6000F6D1546804F001040CB900206CE08C79BF
:101F7000012C04D1146844F08004146003E0146858
:101F800024F080041460CC79012C04D1146844F04E
:101F90004004146003E0146824F0400414600C7AD8
:101FA000012C04D1146844F02004146003E0146888
:101FB00024F0200414604C7A012C04D1146844F0FD
:101FC0001004146003E0146824F0100414608C7A88
:101FD000012C04D1146844F00804146003E0146870
:101FE00024F008041460CC7A012C04D1146844F065
:101FF0000404146003E0146824F0040414608C7872
:10200000A407CD7844EA05640D7944EA05444D7986
:1020100044EA05540D886D1E2C43D461146824F0E5
:1020200001041460002300E05B1C546804F0010408
:102030001CB14FF6FF74A342F6D1546804F00104BA
:102040000CB1002000E0012030BD10B50021837AE2
:10205000012202FA03F1AC4A126842F00102AA4BD3
:102060001A60A94A1C3212688A43A74B1C331A60B3
:10207000027BCAB9A44A0C3212688A43A24B0C33C1
:102080001A604288C38842EA03439F4A4032847AF6
:1020900042F834300288838842EA03439A4A403245
:1020A000847A02EBC4025360027B012A19D1964A5A
:1020B0000C3212680A43944B0C331A60428803882E
:1020C00042EA0343904A4032847A42F83430C2886C
:1020D000838842EA03438C4A4032847A02EBC4028A
:1020E0005360C27A3AB9884A121D12688A43864BF5
:1020F0001B1D1A6006E0844A121D12680A43824BB7
:102100001B1D1A60028932B97F4A143212688A4351
:102110007D4B14331A600289012A06D17A4A14329F
:1021200012680A43784B14331A60427B012A06D1A5
:10213000754A1C3212680A43734B1C331A60724A88
:10214000126822F00102704B1A6010BD00218171EB
:10215000C171017241728172C1728170C1700321BB
:1021600001710221417101210180704766490968AE
:1021700041F00101644A11601146096843F60E728C
:102180009143614A11601146096841EA00211160DA
:102190001146096821F001011160704721B1026800
:1021A00042F48032026003E0026822F4803202606E
:1021B0007047E1B1026842F0800202604FF4C272DF
:1021C000125842F480734FF4C27213504FF4CA7223
:1021D000125842F480734FF4CA7213504FF4D27203
:1021E000125842F480734FF4D27213501BE002680D
:1021F00022F0800202604FF4C272125822F48073FF
:102200004FF4C27213504FF4CA72125822F4807302
:102210004FF4CA7213504FF4D272125822F48073E2
:102220004FF4D2721350704710B5024600209368E5
:1022300003F08063B3F1806F00D110E0936803F086
:102240000063B3F1006F01D1012008E0936803F04F
:102250008053B3F1805F01D1022000E00420042804
:1022600079D002F5C07303EB00131B6803F001047F
:1022700002F5C07303EB00131C600B7A7BB94B7A39
:102280000C8843EA445302F5C07404EB001424683C
:10229000234302F5C07404EB0014236010E00B7AB2
:1022A0004C6843EAC4034C7A234302F5C07404EB40
:1022B00000142468234302F5C07404EB0014236067
:1022C0008B7A03F00F038B7202F5C07303EB0013DC
:1022D0005B6823F00F0402F5C07303EB00135C602E
:1022E00002F5C07303EB00135B688C7A234302F59D
:1022F000C07404EB001463608B7B1C064B7B44EAC8
:10230000034403E000640040006600400B7B44EAA5
:102310000323CC7A234302F5C07404EB0014A360BA
:102320008B7C1C064B7C44EA03440B7C44EA03236D
:10233000CC7B234302F5C07404EB0014E36002F588
:10234000C07303EB00131B6843F0010402F5C07374
:1023500003EB00131C6010BD10B50246002321B131
:10236000012907D002290FD109E09068F94C00EA51
:1023700004030BE09068F84C00EA040306E0906860
:10238000F64C00EA040301E0002300BF00BFF44C58
:10239000181BA34216D007DC83B16FF0806018448D
:1023A00070B1022818D111E0B0F5007F10D0ED4CCB
:1023B000204448B1B0F5003F0ED10BE002230DE000
:1023C00000230BE0002309E0002307E0012305E0E0
:1023D000012303E0012301E0002300BF00BFD8B2C6
:1023E00010BD21B1012907D002290FD109E082686F
:1023F00042F0800282600AE0826842F40042826019
:1024000005E0826842F40002826000E000BF00BF85
:10241000704710B500F5D87303EB01131B6803F088
:1024200004031372137A53B900F5D87303EB011345
:102430001B6840F2FF7404EA5353136009E000F58F
:10244000D87303EB01131B686FF0604404EAD303F5
:10245000536000F5D87303EB01131B6803F002030C
:10246000537200F5D87303EB01135B6803F00F039D
:10247000937200F5D87303EB01135B681B0AD374E6
:1024800000F5D87303EB01139B68D37200F5D87382
:1024900003EB01139B681C0A147300F5D87303EB5C
:1024A00001139B681C0C547300F5D87303EB0113E4
:1024B0009B681B0E937300F5D87303EB0113DB6865
:1024C000D37300F5D87303EB0113DB681C0A147493
:1024D00000F5D87303EB0113DB681C0C547400F592
:1024E000D87303EB0113DB681B0E937421B9C36827
:1024F00043F02003C36003E0036943F0200303615A
:1025000010BD21B9C26842F02002C26003E0026936
:1025100042F02002026170470246002019B9D368D8
:1025200003F0030006E0012903D1136903F003005F
:1025300000E00020704710B502460B4600204FF621
:10254000FF71BBB9146824F0020444F00104146064
:1025500000E0491E546804F00304012C01D0002956
:10256000F7D1546804F00304012C01D0002032E0BC
:10257000012030E0012B13D1146824F0030414600F
:1025800000E0491E546804F003040CB10029F8D19E
:10259000546804F003040CB100201CE001201AE090
:1025A000022B17D1146824F0010444F002041460D3
:1025B00000E0491E546804F00304022C01D00029F5
:1025C000F7D1546804F00304022C01D0002002E08B
:1025D000012000E0002010BD014600200A6822F022
:1025E000010242F002020A604A6802F00302022A73
:1025F00000D10120704701464FF6FF7200200B68A2
:1026000023F002030B6000E0521E4B6803F002034C
:10261000022B01D1002AF7D14B6803F00203022BF1
:1026200000D001207047014600208A6902F0700046
:102630007047014600208A69100E7047014600204D
:102640008A69C2F3074070471AB143690B4343617B
:1026500002E043698B434361704710B50246002096
:1026600001F4700343B19369C1F3130423400BB128
:1026700001202DE000202BE001F0807343B153686E
:10268000C1F3130423400BB1012021E000201FE01F
:1026900001F0006343B19368C1F3130423400BB10D
:1026A000012015E0002013E001F0007343B1D3686E
:1026B000C1F3130423400BB1012009E0002007E01F
:1026C0001369C1F3130423400BB1012000E0002083
:1026D00010BD0022244B994202D10023836111E0F6
:1026E000C1F3130201F000730BB1C2600AE001F004
:1026F00080630BB1026105E001F000630BB1826001
:1027000000E0426070470246002002EA01030BB17C
:10271000012000E00020704770B504460D460026F9
:1027200060692840002872D0B5F5807F69D01DDC33
:10273000082D42D006DC012D2DD0022D31D0042DE4
:102740007FD134E0102D3ED0202D42D0402D78D1C5
:1027500045E000000300000400030008000003102F
:10276000000100080001FFF77000F030B5F5004FE0
:1027700061D009DCB5F5007F4AD0B5F5806F4DD04A
:10278000B5F5006F5DD150E0B5F5803F2DD0B5F5C2
:10279000003F56D12FE0A0685549FFF7B4FF064629
:1027A00051E0E0680321FFF7AEFF06464BE0E0682A
:1027B0000821FFF7A8FF064645E0E0681021FFF773
:1027C000A2FF06463FE020690321FFF79CFF064673
:1027D00039E020690821FFF796FF064633E02069BB
:1027E0001021FFF790FF06462DE060680821FFF7F3
:1027F0008AFF064627E060681021FFF784FF06463F
:1028000021E0A0690121FFF77EFF06461BE01BE0E7
:10281000A0690221FFF777FF064614E0A0690421B2
:10282000FFF771FF06460EE00BE0A0697021FFF78D
:102830006AFF064607E060680421FFF764FF06466A
:1028400001E0002600BF00E00026304670BDB1F573
:10285000007F3AD00FDC202928D006DC01291CD0CB
:1028600004291DD0082940D11DE0402921D0B1F50F
:10287000807F3AD126E0B1F5004F31D006DCB1F5CA
:10288000806F25D0B1F5006F2FD124E0B1F5803FE6
:1028900012D0B1F5003F28D111E0154A826025E041
:1028A0000822C26022E01022C2601FE008220261FA
:1028B0001CE01022026119E00822426016E010229A
:1028C000426013E00422426010E0042242600DE006
:1028D000042242600AE0002282610422426005E094
:1028E000002282610422426000E000BF00BF704706
:1028F000010101000E49086070470D4948607047AA
:102900000B49886070474AF6AA2009490860704759
:102910004CF6CC4006490860704701460020044A46
:10292000D2680A400AB1012000E000207047000090
:1029300000300040704700000FB4044910B503AAEE
:10294000029800F0C7F910BC5DF814FB00000020ED
:1029500070B5044685690068C10601D5302600E0DF
:102960002026C00707D070BDD4E90121304690472A
:10297000206A401C20626D1EF6D570BD70B50446FD
:1029800085690078C00707D170BDD4E901212020F6
:102990009047206A401C20626D1EF6D570BD000075
:1029A0002DE9F0410646002410687529314615A529
:1029B00010D0AFF30080002802DA404212A507E0F1
:1029C00031688A0701D511A502E0490704D510A591
:1029D000012401E0AFF3008000210A2306F124075F
:1029E00007E0B0FBF3F203FB1200303078541046DE
:1029F000491C0028F5D123462A463046BDE8F0415F
:102A000000F00EB9000000002D0000002B000000B7
:102A10002000000070B504460D4621461068AFF353
:102A200000802188090502D50F4A7A4402E00E4A47
:102A30007A440E32002104F1240305E000F00F0671
:102A40000009965D5E54491C0028F7D120780023C8
:102A5000000704D5702D02D009B10223113220469F
:102A6000BDE8704000F0DCB81A1300002DE9F05FFB
:102A7000894604464FF0000ADFF824B1FB44C0F851
:102A800020A02046E168884700287DD0252806D070
:102A9000D4E901219047206A401C2062F1E700251B
:102AA0005F462046E16888472028064607DB312E2E
:102AB00005D2B81910F8200C08B10543F1E7A807B2
:102AC00001D525F00405C4F81CA00027C4F818A0FF
:102AD0002A2E09D0304600F01DFA38B304EB8708DF
:102AE000303EC8F8186019E059F8041B204604EB82
:102AF00087029161E1688847012F064618D1E06995
:102B0000002820DA25F020051DE0D8F8180000EB99
:102B1000800006EB40003038C8F818002046E16815
:102B20008847064600F0F6F90028EED1012F0AD0BA
:102B30002E2E08D12046E16888477F1C0646022FCA
:102B400045F02005C4DBA069002803DA404245F0C7
:102B50000105A061E80701D025F01005A6B1A6F196
:102B60004100192802D8203645F400654A4631460E
:102B7000204625604D46FDF741FB60B1012807D096
:102B8000ED1D25F0070000E007E000F1080978E7F7
:102B900005F1040975E730467AE7206ABDE8F09F41
:102BA000F012000010B5203AC0F00B80B1E81850C8
:102BB000203AA0E81850B1E81850A0E81850BFF427
:102BC000F5AF5FEA027C24BFB1E81850A0E81850C6
:102BD00044BF18C918C0BDE810405FEA827C24BF1A
:102BE00051F8043B40F8043B08BF7047D20728BFA8
:102BF00031F8023B48BF11F8012B28BF20F8023BF7
:102C000048BF00F8012B704702F0FF0343EA03229C
:102C100042EA024200F072B870477047704770474E
:102C20002DE9F0470D4699469246044600F12408E6
:102C30000168880604D5E06921F01001216000E0F8
:102C40000120A84201DD471B00E00027A1697A1995
:102C500002EB0900081AA0612078C00602D42046C1
:102C6000FFF776FE002608E0D4E901211AF80600F5
:102C70009047206A401C761C20624E45F4DB207889
:102C8000C0060AD52046FFF763FE06E0D4E901211D
:102C900030209047206A401C2062381EA7F10107AF
:102CA000F4DC07E0D4E9012118F805009047206A18
:102CB000401C2062281EA5F10105F3DC2046FFF729
:102CC0005DFE2078000602D50220BDE8F0870120D5
:102CD000FBE70000074B70B50D467B4400F033F86E
:102CE0000446284600F042F810B14FF0FF3070BDA6
:102CF000204670BD6F0200004FF000020429C0F0B2
:102D0000128010F0030C00F03780CCF1040CBCF101
:102D1000020F18BF00F8012BA8BF20F8022BA1EB6F
:102D20000C0100F029B85FEAC17C24BF00F8012B38
:102D300000F8012B48BF00F8012B704701694A1CBD
:102D400002610878704700B58FB0CDE901310021EC
:102D5000059105497944CDE9031011466846FFF70E
:102D600085FE0FB000BD0000E5FFFFFF007B00F017
:102D7000800070474FF0000200B513469446964617
:102D8000203922BFA0E80C50A0E80C50B1F120017E
:102D9000BFF4F7AF090728BFA0E80C5048BF0CC02C
:102DA0005DF804EB890028BF40F8042B08BF70478A
:102DB00048BF20F8022B11F0804F18BF00F8012BFC
:102DC0007047754600F028F8AE4605006946534640
:102DD00020F00700854618B020B5FDF73DFABDE8A4
:102DE00020404FF000064FF000074FF000084FF072
:102DF000000B21F00701AC46ACE8C009ACE8C00903
:102E0000ACE8C009ACE8C0098D4670470446AFF392
:102E100000802046FDF70CFA004870474C00002067
:102E200000BFFEE72DE9F04106460F4615463A463B
:102E300031461DA0FFF780FD23A0FFF77DFD012E89
:102E400017D1012023490860002409E0297821488E
:102E5000001D0155297820A0FFF76EFD6D1C641C34
:102E6000082CF3DB17A0FFF767FD01201949087351
:102E700018E0022E16D1012019490860002409E04B
:102E800029781748001D0155297813A0FFF754FD34
:102E90006D1C641C082CF3DB0AA0FFF74DFD01201C
:102EA0000F490873BDE8F08163616E20706F727422
:102EB0003D2025752063616E206964203D203078B7
:102EC000253038580D0A00007265637620646174FD
:102ED000613A20002C00002025303258000000000C
:102EE0003C0000207047704700BFFEE700BFFEE7D0
:102EF000704770477047014670470146087B18B11C
:102F000000200873012070470020FCE770477047DD
:102F100000BFFEE730380A2801D2012070470020A8
:102F20007047014600BF70470AE045F2082103E000
:102F300000BF00BF00BF00BF0A00A1F10101F7D12F
:102F40000200A0F1010398B2EFD1704700BF054A1B
:102F5000128802F04002002AF9D0C2B2014B9A80D6
:102F60007047000000100140B8B0FDF7EDFD4FF4D0
:102F7000E130FDF75DFDFDF7B9FC6420FFF7D4FFFC
:102F8000DFA0FFF7D9FCE6A0FFF7D6FCFFF7AAFF0A
:102F9000FFF7A8FFE6A0FFF7CFFC4FF47A710120FE
:102FA000FDF77EFB18B9E8A0FFF7C6FC02E0ECA035
:102FB000FFF7C2FCFFF796FFFDF732FE4FF47A7180
:102FC0000220FDF76DFB18B9EBA0FFF7B5FC02E09E
:102FD000EFA0FFF7B1FCFFF785FFFDF721FE022010
:102FE0008DF8180010208DF8190061208DF81A0056
:102FF000082006AB0222EC4900900120FDF7BCFA44
:1030000018B9EAA0FFF798FC02E0EFA0FFF794FCE4
:10301000FFF768FFF348FFF770FF04462146F2A070
:10302000FFF78AFCEF48FFF768FF20B102A9ED48DF
:10303000FFF761FF02E0F4A0FFF77EFCFFF752FF0D
:10304000FDF7EEFD06220A2106A8FFF7DDFD0820A8
:1030500006AB0222F24900901046FDF78DFA18B92E
:10306000F0A0FFF769FC02E0F5A0FFF765FCFFF7B1
:1030700039FFFDF7D5FDF948FFF73FFF044621462C
:10308000F7A0FFF759FCF548FFF737FF20B102A979
:10309000F248FFF730FF02E0F9A0FFF74DFCFFF721
:1030A00021FFFDF7BDFDFCA0FFF746FCFFF71AFF6F
:1030B000FDF7B6FD4FF47A710120FDF7F1FA18B96A
:1030C000A1A0FFF739FC02E0A5A0FFF735FCFFF750
:1030D00009FFFDF7A5FD4FF47A710220FDF7E0FA34
:1030E00018B9A5A0FFF728FC02E0A9A0FFF724FC6F
:1030F000FFF7F8FEFDF794FD11220A2106A8FFF75D
:1031000083FD082006AB01224FF4FC6100901046BD
:10311000FDF732FA18B9E6A0FFF70EFC02E0AAA00C
:10312000FFF70AFCFFF7DEFEFDF77AFDAD48FFF77B
:10313000E4FE04462146E5A0FFF7FEFBA948FFF7A1
:10314000DCFE20B102A9A748FFF7D5FE02E0AEA041
:10315000FFF7F2FBFFF7C6FEFDF762FD22220A2110
:1031600006A8FFF751FD082006AB012240F2E171ED
:1031700000900220FDF700FA18B9DCA0FFF7DCFB95
:1031800002E0AFA0FFF7D8FBFFF7ACFEFDF748FD6C
:10319000B248FFF7B2FE04462146DBA0FFF7CCFBA6
:1031A000AE48FFF7AAFE20B102A9AC48FFF7A3FE84
:1031B00002E0B3A0FFF7C0FBFFF794FEFDF730FD80
:1031C000D9A0FFF7B9FBFFF78DFEFDF729FD4FF4FE
:1031D000FA710120FDF764FA18B95BA0FFF7ACFBA8
:1031E00002E05FA0FFF7A8FBFFF77CFEFDF718FDEC
:1031F0004FF4FA710220FDF753FA18B95EA0FFF7F9
:103200009BFB02E062A0FFF797FBFFF76BFEFDF769
:1032100007FD33220A2106A8FFF7F6FC082006ABBB
:1032200002226149491C00900120FDF7A5F918B957
:10323000C4A0FFF781FB02E063A0FFF77DFBFFF76F
:1032400051FEFDF7EDFC6748FFF757FE04462146A7
:10325000C3A0FFF771FB6348FFF74FFE20B102A93F
:103260006048FFF748FE02E067A0FFF765FBFFF745
:1032700039FEFDF7D5FC44220A2106A8FFF7C4FC5D
:10328000082006AB02226649491E00901046FDF751
:1032900073F918B9BAA0FFF74FFB02E068A0FFF777
:1032A0004BFBFFF71FFEFDF7BBFC6C48FFF725FE4D
:1032B00004462146B9A0FFF73FFB6848FFF71DFE13
:1032C00020B102A96548FFF716FE02E06CA0FFF7E7
:1032D00033FBFFF707FEFDF7A3FCB8A0FFF72CFBBD
:1032E000FFF700FEFDF79CFC4FF4FA710120FDF79B
:1032F000D7F918B914A0FFF71FFB71E16CE10000CA
:103300002323232323204465766963652073746136
:1033100072742E2E2E2023232323230D0A00000057
:103320000AB2E2CAD443414EC4A3BFE93A00000046
:103330000A2D2D2D2D2D2D314DB2A8CCD8C2CA2C41
:10334000C0A9D5B9D6A13A000A2D2D2D2D43414E45
:10335000B6CBBFDA31B4F2BFAAB3C9B9A600000038
:103360000A2D2D2D2D43414EB6CBBFDA31B4F2BF1D
:10337000AACAA7B0DC0000000A2D2D2D2D43414E16
:10338000B6CBBFDA32B4F2BFAAB3C9B9A600000007
:103390000A2D2D2D2D43414EB6CBBFDA32B4F2BFEC
:1033A000AACAA7B0DC000000F100DA180A312D2DFE
:1033B0002D2D43414ECDA8B5C031CAFDBEDDB7A20B
:1033C000CBCDB3C9B9A600000A2D2D2D2D43414EFA
:1033D000CDA8B5C031CAFDBEDDB7A2CBCDCAA7B05E
:1033E000DC2E00003C0000200A312D2D2D2D434104
:1033F0004ECDA8B5C032CAFDBEDDCCF5CAFDA3BA1C
:103400002564200A000000000A2D2D2D2D43414E79
:1034100032BDD3CAD5CAFDBEDDCAA7B0DC000000EC
:10342000240000180A322D2D2D2D43414ECDA8B574
:10343000C032CAFDBEDDB7A2CBCDB3C9B9A600006C
:103440000A2D2D2D2D43414ECDA8B5C032CAFDBE4B
:10345000DDB7A2CBCDCAA7B0DC0000002C00002055
:103460000A322D2D2D2D43414ECDA8B5C031CAFDB8
:10347000BEDDCCF5CAFDA3BA2564200A0000000019
:103480000A2D2D2D2D43414E31BDD3CAD5CAFDBEC7
:10349000DDCAA7B0DC0000000A2D2D2D2D2D2D3109
:1034A0004DB2A8CCD8C2CA2CB1EAD7BCD6A13A003A
:1034B0000A332D2D2D2D43414ECDA8B5C031CAFD67
:1034C000BEDDB7A2CBCDB3C9B9A600000A332D2DFE
:1034D0002D2D43414ECDA8B5C032CAFDBEDDCCF581
:1034E000CAFDA3BA2564200A000000000A342D2D6D
:1034F0002D2D43414ECDA8B5C032CAFDBEDDB7A2C9
:10350000CBCDB3C9B9A600000A342D2D2D2D4341D2
:103510004ECDA8B5C031CAFDBEDDCCF5CAFDA3BAFB
:103520002564200A000000000A2D2D2D2D2D2D359B
:1035300030304BB2A8CCD8C2CA2CC0A9D5B9D6A1BC
:103540003A0000000A352D2D2D2D43414ECDA8B552
:10355000C031CAFDBEDDB7A2CBCDB3C9B9A600004C
:103560000A352D2D2D2D43414ECDA8B5C032CAFDB3
:10357000BEDDCCF5CAFDA3BA2564200A0000000018
:103580000A362D2D2D2D43414ECDA8B5C032CAFD92
:10359000BEDDB7A2CBCDB3C9B9A600000A362D2D2A
:1035A0002D2D43414ECDA8B5C031CAFDBEDDCCF5B1
:1035B000CAFDA3BA2564200A000000000A2D2D2DA3
:1035C0002D2D2D3530304BB2A8CCD8C2CA2CB1EA43
:1035D000D7BCD6A13A000000AFF27C20FFF7ACF9CF
:1035E000FFF780FCFDF71CFB4FF4FA710220FDF79A
:1035F00057F820B9AFF28020FFF79EF903E0AFF251
:103600007020FFF799F9FFF76DFCFDF709FB5522D4
:103610000A2106A8FFF7F8FA082006AB012240F2BB
:10362000E27100901046FCF7A7FF18B9CDA0FFF794
:1036300083F903E0AFF27020FFF77EF9FFF752FC49
:10364000FDF7EEFACE48FFF758FC04462146CDA020
:10365000FFF772F9CA48FFF750FC20B102A9C84829
:10366000FFF749FC03E0AFF26020FFF765F9FFF7D1
:1036700039FCFDF7D5FA66220A2106A8FFF7C4FA3D
:10368000082006AB012240F2E37100900220FCF713
:1036900073FF18B9C3A0FFF74FF903E0AFF2602042
:1036A000FFF74AF9FFF71EFCFDF7BAFAC448FFF727
:1036B00024FC04462146C3A0FFF73EF9C048FFF7AB
:1036C0001CFC20B102A9BE48FFF715FC03E0AFF2D5
:1036D0005020FFF731F9FFF705FCFDF7A1FAC1A073
:1036E000FFF72AF9FFF7FEFBFDF79AFAFA2101200E
:1036F000FCF7D6FF20B9AFF2B030FFF71DF903E0B9
:10370000AFF2A430FFF718F9FFF7ECFBFDF788FAEA
:10371000FA210220FCF7C4FF20B9AFF2A430FFF772
:103720000BF903E0AFF29830FFF706F9FFF7DAFB89
:10373000FDF776FA77220A2106A8FFF765FA082036
:1037400006AB0222AE4900900120FCF715FF18B924
:10375000ACA0FFF7F1F803E0AFF29430FFF7ECF81C
:10376000FFF7C0FBFDF75CFA8548FFF7C6FB044690
:103770002146ABA0FFF7E0F88148FFF7BEFB20B180
:1037800002A97F48FFF7B7FB03E0AFF28430FFF7F1
:10379000D3F8FFF7A7FBFDF743FA88220A2106A812
:1037A000FFF732FA082006AB0222A5490090104626
:1037B000FCF7E2FE18B9A3A0FFF7BEF803E0AFF2F2
:1037C0008030FFF7B9F8FFF78DFBFDF729FA7C4849
:1037D000FFF793FB04462146A1A0FFF7ADF8784818
:1037E000FFF78BFB20B102A97548FFF784FB03E0CC
:1037F000AFF27430FFF7A0F8FFF774FBFDF710FA93
:103800009FA0FFF799F8FA210120FCF749FF20B9A2
:10381000AFF2CC40FFF790F803E0AFF2BC40FFF707
:103820008BF8FFF75FFBFDF7FBF9FA210220FCF7AD
:1038300037FF20B9AFF2C040FFF77EF803E0AFF2E8
:10384000B040FFF779F8FFF74DFBFDF7E9F9992252
:103850000A2106A8FFF7D8F9082006AB012240F29A
:10386000E67100901046FCF787FE18B98BA0FFF7B1
:1038700063F803E0AFF2B040FFF75EF8FFF732FB0A
:10388000FDF7CEF93E48FFF738FB044621468AA0F3
:10389000FFF752F83A48FFF730FB20B102A9384849
:1038A000FFF729FB03E0AFF2A040FFF745F8FFF771
:1038B00019FBFDF7B5F9AA220A2106A8FFF7A4F91A
:1038C000082006AB012240F2E77100900220FCF7CD
:1038D00053FE18B980A0FFF72FF803E0AFF2A04025
:1038E000FFF72AF8FFF7FEFAFDF79AF93448FFF7D9
:1038F00004FB044621467FA0FFF71EF83048FFF77F
:10390000FCFA20B102A92E48FFF7F5FA03E0AFF266
:103910009040FFF711F87FA0FFF70EF8FFF7E2FAEB
:10392000FDF77EF91CE080A0FFF706F87EA0FFF708
:1039300003F87DA0FFF700F87BA0FEF7FDFF7AA05B
:10394000FEF7FAFF78A0FEF7F7FF77A0FEF7F4FF87
:1039500075A0FEF7F1FF74A0FEF7EEFFFDF760F92A
:10396000E1E700000A372D2D2D2D43414ECDA8B59E
:10397000C031CAFDBEDDB7A2CBCDB3C9B9A6000028
:103980003C0000200A372D2D2D2D43414ECDA8B5EA
:10399000C032CAFDBEDDCCF5CAFDA3BA2564200A3B
:1039A000000000000A382D2D2D2D43414ECDA8B525
:1039B000C032CAFDBEDDB7A2CBCDB3C9B9A60000E7
:1039C0002C0000200A382D2D2D2D43414ECDA8B5B9
:1039D000C031CAFDBEDDCCF5CAFDA3BA2564200AFC
:1039E000000000000A2D2D2D2D2D2D3235304BB22B
:1039F000A8CCD8C2CA2CC0A9D5B9D6A13A0000001B
:103A0000F500DA180A392D2D2D2D43414ECDA8B5DC
:103A1000C031CAFDBEDDB7A2CBCDB3C9B9A6000087
:103A20000A392D2D2D2D43414ECDA8B5C032CAFDEA
:103A3000BEDDCCF5CAFDA3BA2564200A0000000053
:103A4000220000180A31302D2D2D2D43414ECDA8D6
:103A5000B5C032CAFDBEDDB7A2CBCDB3C9B9A60091
:103A60000A31302D2D2D2D43414ECDA8B5C031CA80
:103A7000FDBEDDCCF5CAFDA3BA2564200A00000016
:103A80000A2D2D2D2D2D2D3235304BB2A8CCD8C27C
:103A9000CA2CB1EAD7BCD6A13A0000000A31312DB8
:103AA0002D2D2D43414ECDA8B5C031CAFDBEDDB789
:103AB000A2CBCDB3C9B9A6000A31312D2D2D2D438E
:103AC000414ECDA8B5C032CAFDBEDDCCF5CAFDA3BE
:103AD000BA2564200A0000000A31322D2D2D2D4315
:103AE000414ECDA8B5C032CAFDBEDDB7A2CBCDB325
:103AF000C9B9A6000A31322D2D2D2D43414ECDA836
:103B0000B5C031CAFDBEDDCCF5CAFDA3BA2564201F
:103B10000A0000000A43414EC4A3BFE9B2E2CAD47E
:103B2000CDEAB3C9210A00000D0A43414EC4A3BF28
:103B3000E9B2E2CAD4CDEAB3C9210A004FF040701D
:103B4000E1EE100A704700000000891112239B3239
:103B50002446AD573665BF74488CC19D5AAFD3BE5D
:103B60006CCAE5DB7EE9F7F88110080193331A226D
:103B7000A5562C47B7753E64C99C408DDBBF52AE3D
:103B8000EDDA64CBFFF976E802218B30100299134D
:103B90002667AF763444BD554AADC3BC588ED19F1D
:103BA0006EEBE7FA7CC8F5D983310A20911218032D
:103BB000A7772E66B5543C45CBBD42ACD99E508FFD
:103BC000EFFB66EAFDD874C904428D5316619F70FD
:103BD0002004A9153227BB364CCEC5DF5EEDD7FCDD
:103BE0006888E1997AABF3BA85520C4397711E60ED
:103BF000A1142805B3373A26CDDE44CFDFFD56ECBD
:103C0000E9986089FBBB72AA06638F7214409D51CC
:103C10002225AB343006B9174EEFC7FE5CCCD5DD9C
:103C20006AA9E3B8788AF19B87730E6295501C41AC
:103C3000A3352A24B1163807CFFF46EEDDDC54CD7C
:103C4000EBB962A8F99A708B088481951AA793B68C
:103C50002CC2A5D33EE1B7F04008C919522BDB3A7C
:103C6000644EED5F766DFF7C899400859BB712A64C
:103C7000ADD224C3BFF136E0C1184809D33B5A2A5C
:103C8000E55E6C4FF77D7E6C0AA583B4188691972C
:103C90002EE3A7F23CC0B5D14229CB38500AD91B3C
:103CA000666FEF7E744CFD5D8BB502A4999610870C
:103CB000AFF326E2BDD034C1C3394A28D11A580B1C
:103CC000E77F6E6EF55C7C4D0CC685D71EE597F4DC
:103CD0002880A1913AA3B3B2444ACD5B5669DF78FC
:103CE000600CE91D722FFB3E8DD604C79FF516E4CC
:103CF000A9902081BBB332A2C55A4C4BD7795E68DC
:103D0000E11C680DF33F7A2E0EE787F61CC495D5AB
:103D10002AA1A3B03882B193466BCF7A5448DD59BB
:103D2000622DEB3C700EF91F8FF706E69DD414C58B
:103D3000ABB122A0B9923083C77B4E6AD5585C499B
:103D4000E33D6A2CF11E780F30313233343536378B
:103D500038394142434445464030580030313233CF
:103D600034353637383961626364656640307800CF
:103D70000400000800000000000000020001000034
:103D800010000000A43D0208000000202C000000EC
:103D9000C4010208D03D02082C0000208406000067
:103DA000E001020800000000007A030A00000000A1
:103DB00000000000010203040607080900000000DB
:103DC00000000001020304010203040607080900C1
:040000050802018963
:00000001FF
