:020000040802F0
:1000000090060020310202082D3202082532020833
:10001000293202081D3202083732020800000000AF
:100020000000000000000000000000003332020861
:1000300023320208000000002F3202083532020885
:100040004B0202084B0202084B020208150B020881
:100050004B0202084B0202084B0202084B02020844
:100060004B0202084B0202084B0202084B02020834
:100070004B0202084B0202084B0202084B02020824
:100080004B0202084B0202084B0202084B02020814
:100090004B0202084B0202084B0202084B02020804
:1000A0004B0202084B0202084B0202084B020208F4
:1000B0004B0202084B0202084B0202084B020208E4
:1000C0004B0202084B0202084B0202084B020208D4
:1000D0004B020208190902084B0202084B020208EF
:1000E0004B0202084B0202084B0202084B020208B4
:1000F0004B0202084B0202084B0202084B020208A4
:100100004B0202084B0202084B0202084B02020893
:100110004B0202084B0202084B0202084B02020883
:100120004B0202084B0202084B0202084B02020873
:100130004B0202084B0202084B0202084B02020863
:100140004B0202084B0202084B0202084B02020853
:100150004B0202084B0202084B0202084B02020843
:100160004B0202084B0202084B0202084B02020833
:100170004B0202084B0202084B0202084B02020823
:100180004B0202084B02020800F002F800F041F8AE
:100190000AA090E8000C82448344AAF10107DA45E2
:1001A00001D100F036F8AFF2090EBAE80F0013F0F3
:1001B000010F18BFFB1A43F0010318473038000045
:1001C00050380000103A24BF78C878C1FAD85207D6
:1001D00024BF30C830C144BF04680C6070470000C1
:1001E0000023002400250026103A28BF78C1FBD840
:1001F000520728BF30C148BF0B607047642902F026
:100200007B86002070471FB503F0DCFB1FBD10B5D7
:1002100010BD02F0D3FF1146FFF7F5FF03F038F8E9
:1002200002F0F1FF03B4FFF7F2FF03BC03F00CF898
:100230000948804709480047FEE7FEE7FEE7FEE77A
:10024000FEE7FEE7FEE7FEE7FEE7FEE704480549B6
:10025000054A064B704700004D0302088901020859
:1002600090000020900600209002002090020020C4
:100270000CB50020019000907548006840F4803073
:100280007349086000BF7248006800F400300090B5
:100290000198401C0190009818B90198B0F5A04F42
:1002A000F1D16B48006800F4003010B101200090DB
:1002B00001E0002000900098012846D164484030B9
:1002C000006840F080506249403108606148006831
:1002D00040F440405F4908605D48083000685C4970
:1002E000083108600846006840F40040086008468D
:1002F000006840F4A05008605748091F0860081FB4
:10030000006840F08070091F086000BF5048006816
:1003100000F000700028F9D040F205704F490860E5
:100320004B480830006820F0030049490831086054
:100330000846006840F00200086000BF44480830EA
:10034000006800F00C000828F8D10CBD10B5444836
:10035000006840F47000424908603D48006840F081
:1003600001003B49086000203949083108603848DD
:1003700000683C490840364908603B48091D086050
:10038000081F006820F48020091F08600020304901
:100390000C310860FFF76CFF344831498039086040
:1003A00010BD70B500200022022300240221284D38
:1003B00008352D6805F00C0020B1042806D0082867
:1003C00034D107E02A4D2B4E356033E02A4D294EBB
:1003D00035602FE01E4D2D1D2D68C5F380541C4D3A
:1003E0002D1D2D6805F03F0154B1234DB5FBF1F5EE
:1003F000174E361D3668C6F3881605FB06F209E06F
:100400001B4DB5FBF1F5124E361D3668C6F3881646
:1004100005FB06F20E4D2D1D2D68C5F301456D1C23
:100420006B00B2FBF3F5134E356003E0104D114E37
:10043000356000BF00BF064D08352D68C5F30315B4
:100440000E4E705D0B4D2D68C5400A4E356070BD77
:10045000003802400070004008544007003C024051
:1004600088ED00E0FFFFF6FE1030002400000208D7
:100470000024F4000400002000127A00080000208C
:1004800000B58DB00121022000F066FF01210802B5
:1004900000F0BCFF02200B9003208DF830000020FC
:1004A0008DF833000BA93C4800F0B8FC012108028C
:1004B00001F001F800214FF4807000F0FCFF0020F3
:1004C00007900A9009904FF48030089007A802F036
:1004D00085FA002001908DF808008DF8090003903E
:1004E000059001208DF8180001A92C4802F047FA68
:1004F00001212A4802F089FA0DB000BD10B507238A
:1005000001220921254802F0C0FA244802F019FB13
:1005100000BF0221214802F035FC0028F9D01F4815
:1005200002F04BFB10BD10B52DED0C8B00249FEDA0
:100530001C0AB0EE408AFFF7E1FF0446204603F0B4
:100540002FF941EC1D0B9FED170B53EC102B02F014
:10055000CFFF41EC1C0B9FED150B53EC102B03F060
:1005600033F941EC1B0B9FED130B53EC102B02F0F6
:10057000BFFF41EC1A0B9FED110B53EC102B03F056
:1005800023F941EC190B02F081FF08EE100AB0EEDE
:10059000480ABDEC0C8B10BD000402400020014055
:1005A00000000000000000000000B04066666666C3
:1005B00066660A400000000000806B4000000000FA
:1005C000000074401CB501211E2000F0C5FE4FF450
:1005D0004040009001208DF8040000208DF80600B6
:1005E0008DF8070003208DF805006946544800F097
:1005F00015FC0420009001208DF8040000208DF8E7
:1006000006008DF8070003208DF8050069464D4867
:1006100000F004FC4FF44060009001208DF80400CD
:1006200000208DF806008DF8070003208DF80500E6
:100630006946454800F0F2FB4FF40040009000206E
:100640008DF804008DF8070002208DF8050069463A
:100650003E4800F0E3FB0820009000208DF80400E5
:100660008DF8070002208DF805006946364800F035
:10067000D5FB0421334800F04DFC4FF44041304895
:1006800000F04AFC4FF480612F4800F045FC4FF425
:1006900000612D4800F040FC1CBD70B505460C46BD
:1006A000012D0AD124B9C103254800F033FC04E030
:1006B0004FF40041224800F02FFC022D0AD124B94A
:1006C00069031F4800F026FC04E04FF480411C48F9
:1006D00000F022FC70BD10B54FF400411B4800F043
:1006E000FFFB04460CB9012010BD0020FCE710B54B
:1006F0000821154800F0F4FB044615480088B0B105
:1007000014480078A04205D011480088401C1049C8
:10071000088002E000200E4908800D480088642807
:100720000ADB01200A4908800A48047004E00948ED
:1007300004700120064908800648007810BD0000BA
:100740000004024000080240000C02400010024079
:100750001A0000201800002010B5012002F0D7F880
:100760000121084602F07FF810BD10B54FF48071EA
:100770002B4800F0D1FB4FF40071294800F0CCFB6E
:100780000021284802F041F910BD10B54FF4007166
:10079000234800F0BFFB4FF48071214800F0BAFB02
:1007A0000121204802F031F910BD10B5FFF79FFF7D
:1007B00028B94FF480611A4800F0AEFB04E04FF412
:1007C0008061174800F0A6FB022010BD10B504465A
:1007D0002CB94FF48061124800F09EFB04E04FF406
:1007E00080610F4800F096FB10BD10B52DED028B17
:1007F000FFF77DFF012803D10220BDEC028B10BD65
:10080000FFF791FEB0EE408A9FED070AB4EEC08A72
:10081000F1EE10FA01D20120EFE70020EDE7000031
:10082000000C024000200140CDCC7C4010B588B0C7
:1008300004460121084600F08FFD0121102000F040
:10084000E5FD072209213D4800F073FB07220A213C
:100850003A4800F06EFB4FF4C060069002208DF81D
:100860001C008DF81D0000208DF81E0001208DF861
:100870001F0006A9314800F0D1FA02940020ADF81B
:100880000C00ADF80E00ADF81000ADF814000C200F
:10089000ADF8120002A92A4800F019FF01212848EA
:1008A00000F09DFF4021264801F081F8012240F22E
:1008B0002551234801F049F825208DF80400032034
:1008C0008DF805008DF8060001208DF8070001A8BD
:1008D00000F0B3F9002008B010BD10B5002240F2BE
:1008E0002551174801F031F8154800F089FE002124
:1008F000102000F08BFD002010BD10B5044600BF95
:100900000F48008800F040000028F9D021460C482C
:1009100000F090FF002010BD08B540F225510848B6
:1009200001F04EF840B1064800F088FFC0B20090D8
:100930000121684602F07CFC08BD00000000024076
:10094000001001400AE045F2082103E000BF00BFAB
:1009500000BF00BF0A00A1F10101F7D10200A0F120
:10096000010398B2EFD17047F8B504460D4617461B
:100970001E468DF800408DF801508DF802708DF8FC
:1009800003606946002001F0C7F9F8BDF8B50446D8
:100990000D4617461E468DF802708DF801508DF8F1
:1009A00000608DF803406946002001F053FAF8BD5D
:1009B0003EB541F6FF740121080700F016FD012045
:1009C00001F007FF002001F003FE45F250018842CC
:1009D00025D0012000F05DFB04E0601C84B20A20F9
:1009E000FFF7B0FF412000F00DFB0028F5D00CB957
:1009F00001203EBD4FF4807000F04CFC012000F05F
:100A000064FC7F200190FF20029000200090684647
:100A100001F0E7F845F25001002001F0CCFD002084
:100A2000E7E71CB504460CB901201CBD01A9002054
:100A300001F0DCF96946002001F072FA9DF803002C
:100A400060719DF8010020719DF80200E0709DF832
:100A50000400A0709DF8050060709DF806002070ED
:100A60000020E2E710B504460CB9012010BD227841
:100A70006178A0780023FFF777FF08B90120F5E738
:100A8000E278217960790123FFF780FF08B901201E
:100A9000ECE70020EAE73EB50446002001F09FFBAA
:100AA000042001F077FB0CB1601E84B2204601F0F7
:100AB00086FB4FF4806001F041FE4FF4804001F06E
:100AC00069FE4FF4800002F000FA4FF480000190BC
:100AD00000208DF8080008208DF8090001208DF80D
:100AE0000A0001A802F080F903208DF8000001201F
:100AF0008DF801008DF802008DF80300684600F0C3
:100B00009CF80121880301F0D9FD012001F067FB69
:100B100000203EBD10B5FFF719FC4FF4806001F0D6
:100B2000FCFD012802D1800201F008FE4FF4800094
:100B300002F0CBF9002001F052FB00214FF480407D
:100B400001F0BCFD10BD000010B5FFF7FFFB10BDAC
:100B500070B505466FF0040000F0BCF815240C4891
:100B6000B0FBF5F04443B4F1807F01D36FF07F44D4
:100B70004FF0E020006940F002004FF0E0210861F2
:100B800008464461006940F00100086170BD000042
:100B900040420F001CB50121082000F0DDFB4FF49E
:100BA0008040009001208DF8040000208DF80600A0
:100BB0008DF8070003208DF8050069461A4800F0FB
:100BC0002DF94FF48041184800F0A6F91CBD10B56E
:100BD0001648007828B14FF48041134800F09CF982
:100BE00004E04FF48041104800F094F90F48007879
:100BF00008B9012000E000200C49087010BD10B5B4
:100C0000044645F2555001F08FFE032001F08FFE9F
:100C1000204601F08FFE01F090FE01F093FE10BD22
:100C200010B501F08AFE10BD000C02401C0000202F
:100C300032490143324A1160704770B500210023E8
:100C40000F22C4781CB32E4C246804F4E064C4F56D
:100C5000E064C4F30721C1F10404E3B20A4144781B
:100C60009C40E1B28478144021430C07210E254CAE
:100C700005786155047804F01F050124AC4005781F
:100C80006D11AD0005F1E025C5F8004109E00478DB
:100C900004F01F050124AC401B4D0678761145F881
:100CA000264070BD194A0A400243154B1B1F1A60AB
:100CB000704739B1124A121D12680243104B1B1DB6
:100CC0001A6006E00E4A121D126882430C4B1B1D6F
:100CD0001A607047042808D14FF0E021096941F0FB
:100CE00004014FF0E022116107E04FF0E0210969B3
:100CF00021F004014FF0E022116170470000FA0575
:100D00000CED00E000E400E080E100E080FFFF1F68
:100D100010B504469848844208D10121084600F0E5
:100D200086FB0021012000F082FB76E0934884429C
:100D300008D10121022000F07AFB0021022000F0FE
:100D400076FB6AE08E48844208D10121042000F03D
:100D50006EFB0021042000F06AFB5EE089488442BB
:100D600008D10121082000F062FB0021082000F0DA
:100D70005EFB52E08448844208D10121102000F03B
:100D800056FB0021102000F052FB46E07F488442D1
:100D900008D10121202000F04AFB0021202000F092
:100DA00046FB3AE07A48844208D10121402000F015
:100DB0003EFB0021402000F03AFB2EE075488442C3
:100DC00008D10121802000F032FB0021802000F0BA
:100DD0002EFB22E07048844208D10121801500F0EA
:100DE00026FB0021A01500F022FB16E06B48844290
:100DF00008D10121401500F01AFB0021601500F018
:100E000016FB0AE06648844207D10121001500F074
:100E10000EFB0021201500F00AFB10BDF0B50A46BC
:100E200000210023002400BF3DE0012505FA01F365
:100E3000156805EA03049C4234D105684F00032677
:100E4000BE40B543056015794E00B5400668354390
:100E500005601579012D02D01579022D16D185680E
:100E60004F000326BE40B543856055794E00B5401E
:100E7000866835438560456801268E40B5434560E8
:100E8000456896798E40B6B235434560C5684F00D7
:100E90000326BE40B543C560D5794E00B540C6684F
:100EA0003543C560491C1029BFD3F0BD4FF6FF7113
:100EB00001600021017141718171C171704708B5F4
:100EC0004FF480320092009A0A430092009AC26165
:100ED000C161009AC261C2690092C269009208BDF4
:100EE0000246002013690B400BB1012000E00020F6
:100EF00070470146086980B2704702460020536976
:100F00000B400BB1012000E000207047014648690A
:100F100080B2704701837047418370470AB10183F3
:100F200000E0418370474161704742694A40426135
:100F30007047F0B5002300244D07ED0E02FA05F3CB
:100F4000CE1000F1200555F826504E07F70E0F265B
:100F5000BE40B543CF1000F1200646F82750CE1012
:100F600000F1200555F8265045EA0304CE1000F1A3
:100F7000200545F82640F0BD000002400004024074
:100F800000080240000C0240001002400014024021
:100F900000180240001C02400020024000240240D1
:100FA00000280240F948006840F00100F749086055
:100FB0000020F64908310860F4480068F449084008
:100FC000F2490860F348091D0860F348EF4984318D
:100FD0000860F0481038091D0860EC48006820F4EB
:100FE0008020EA4908600020E8490C310860E749A0
:100FF0008C31086070470021E44A921C1170114640
:101000000870704710B501460022002300204A11E5
:10101000012A02D1DD4C236808E0022A03D1DB4C0F
:101020007034236802E0D94C7434236801F01F0245
:10103000012494401C400CB1012000E0002010BDB0
:1010400038B5002000900024002500BF3120FFF7B4
:10105000D9FF05460098401C00900098B0F5A04FBD
:1010600001D0002DF2D03120FFF7CCFF08B10124D0
:1010700000E00024204638BD01460020C34A106825
:1010800020F0F80040EAC10010607047C3490860D2
:1010900070470021BD4A703211701170012802D0D2
:1010A00004280AD104E00121B84A7032117005E029
:1010B0000521B64A7032117000E000BF00BF7047D2
:1010C000B7490860704770B5049C41EA8215012653
:1010D000C6EB530645EA0645054345EA0465AB4EB3
:1010E000361D356070BDAD4908667047820142EA21
:1010F0000172A64B84331A607047A849886670470E
:1011000010B5830143EA016343EA02739F4C8834BC
:10111000236010BDA14908677047A049C8647047A3
:1011200002460020994B0833186820F0EC6042EA30
:1011300001031843954B083318607047024600209E
:10114000924B0833186820F0784042EA01031843B4
:101150008E4B083318607047014600208B4A0832D6
:10116000106820F00300084310607047874808307B
:10117000006800F00C00704701460020834A0832E6
:10118000106820F0F000084310607047014600200E
:101190007E4A0832106820F4E0500843106070471F
:1011A00001460020794A0832106820F4604040EA85
:1011B000C10010607047F0B5002100220024022514
:1011C00000260223714F08373F6807F00C0121B158
:1011D000042905D0082937D105E0724F076036E0B1
:1011E000714F076033E0694F3F1D3F68C7F380567A
:1011F000664F3F1D3F6807F03F036EB16A4FB7FB74
:10120000F3F7DFF888C10CF1040CDCF800C0CCF374
:10121000881C07FB0CF40CE0624FB7FBF3F7DFF818
:101220006CC10CF1040CDCF800C0CCF3881C07FB8B
:101230000CF4564F3F1D3F68C7F301477F1C7D00EC
:10124000B4FBF5F7076002E0564F076000BF00BF30
:101250004E4F08373F6807F0F0010909534F7A5C99
:101260000768D7404760494F08373F6807F4E051A7
:10127000890A4E4F7A5C4768D7408760434F0837EA
:101280003F6807F46041490B484F7A5C4768D74094
:10129000C760F0BD002100F44072B2F5407F0AD172
:1012A0003A4A0832116821F4F811414A02401143C8
:1012B000364A08321160354A70321268C0F30B03A7
:1012C0001A43324B70331A6070473549443908600D
:1012D00070473349403908607047364908607047A5
:1012E00001460020294A8C32106820F01F004A1E57
:1012F0001043264A8C321060704701460020234A72
:101300008C32106820F4F8504A1E40EA02201F4A2E
:101310008C3210607047014600201C4A8C321068E5
:1013200020F4401008431060704701460020174A1F
:101330008C32106820F4400008431060704701466A
:101340000020124A8C32106820F4403008431060AC
:10135000704719490860704739B10C4A3032126839
:1013600002430A4B30331A6006E0084A30321268F2
:101370008243064B30331A607047F9B1034A343266
:1013800012680243014B34331A601CE000380240FB
:10139000FFFFF6EA10300024003000200000474232
:1013A000800E47420024F40000127A001D00002045
:1013B000FFFCFF0F5C014742E01147428F4A126871
:1013C00082438E4B1A60704739B18C4A121D1268E5
:1013D00002438A4B1B1D1A6006E0884A121D1268E0
:1013E0008243864B1B1D1A60704739B1834A0C3209
:1013F00012680243814B0C331A6006E07F4A0C32BC
:10140000126882437D4B0C331A60704739B17B4AB6
:10141000103212680243794B10331A6006E0774AA3
:10142000103212688243754B10331A60704739B11D
:10143000724A243A12680243704B243B1A6006E059
:101440006E4A243A126882436C4B243B1A60704700
:1014500039B16A4A203A12680243684B203B1A604D
:1014600006E0664A203A12688243644B203B1A60C9
:10147000704739B1614A1C3A126802435F4B1C3B0A
:101480001A6006E05D4A1C3A126882435B4B1C3BC3
:101490001A60704739B1594A143A12680243574BDF
:1014A000143B1A6006E0554A143A12688243534BC3
:1014B000143B1A60704739B1504A103A126802431F
:1014C0004E4B103B1A6006E04C4A103A12688243B9
:1014D0004A4B103B1A60704739B1484A1C321268B7
:1014E0000243464B1C331A6006E0444A1C32126821
:1014F0008243424B1C331A60704739B13F4A203255
:10150000126802433D4B20331A6006E03B4A20320A
:1015100012688243394B20331A60704739B1374A19
:10152000243212680243354B24331A6006E0334AF2
:10153000243212688243314B24331A60704739B128
:101540002E4A2C32126802432C4B2C331A6006E0D0
:101550002A4A2C3212688243284B2C331A60704777
:1015600039B1264A303212680243244B30331A60B4
:1015700006E0224A303212688243204B30331A6030
:101580007047012808D11D493C31096841F0080124
:101590001A4A3C32116007E018493C31096821F0D1
:1015A0000801164A3C321160704739B1134A273A94
:1015B00012780243114B273B1A7006E00F4A273A74
:1015C000127882430D4B273B1A7070470B4840300E
:1015D000006840F08070094940310860704701465A
:1015E0000020064A283A12680A400AB1012000E0A9
:1015F000002070470149263908707047343802408E
:1016000010B50446FA48844208D101211020FFF7A2
:1016100052FF00211020FFF74EFF57E0F5488442AB
:1016200009D101214804FFF735FF00214FF40030B4
:10163000FFF730FF4AE0F048844209D101218804D5
:10164000FFF728FF00214FF48020FFF723FF3DE044
:10165000EA48844209D10121C804FFF71BFF002199
:101660004FF40020FFF716FF30E0E548844209D12F
:1016700001210805FFF70EFF00214FF48010FFF74E
:1016800009FF23E0DF48844208D101212020FFF731
:1016900012FF00212020FFF70EFF17E0DA488442F6
:1016A00009D101218807FFF7F5FE00214FF08040A6
:1016B000FFF7F0FE0AE0D548844207D1012140053A
:1016C000FFF7E8FE00216005FFF7E4FE10BD2DE9FD
:1016D000FF4705460E460024A14600BFA046B0893C
:1016E00000B100BF2C8A24F44054F08804432C82BB
:1016F000AC8941F20C608443B08831890843718918
:1017000008430443AC81AC8A24F44074B089044398
:10171000AC826846FFF74FFDB548854202D0B94814
:10172000854202D1DDF80C9001E0DDF80890A8892F
:1017300000F4004040B109EBC90000EB091031682A
:101740004900B0FBF1F707E009EBC90000EB091015
:1017500031688900B0FBF1F76420B7FBF0F00401B9
:101760002009642101FB1078A88900F4004040B1F1
:10177000322000EBC800B0FBF1F000F0070004439A
:1017800008E0322000EB08106421B0FBF1F000F01B
:101790000F0004432C81BDE8FF874FF41651016010
:1017A00000218180C18001810C2141810021818142
:1017B000704710B502460020108A20F470600B8834
:1017C0004C8823438C882343CC88234318431082BE
:1017D00010BD0021018041808180C180704721B10E
:1017E000828942F40052828104E082894DF6FF73BF
:1017F0001A4082817047028B02F47F420283028B7F
:101800000A430283704721B1828942F400428281F7
:1018100003E08289C2F30E028281704721B1828A7D
:1018200042F40062828204E0828A4FF2FF731A401F
:1018300082827047C1F3080282807047014688881F
:10184000C0F308007047028A4FF6F0731A40028214
:10185000028A0A430282704721B1828942F0020261
:10186000828104E082894FF6FD731A4082817047BD
:1018700082894FF2FF731A40828182890A438281F2
:101880007047028A4FF6DF731A400282028A0A43C7
:101890000282704721B1028A42F48042028204E04F
:1018A000028A4BF6FF731A4002827047818941F029
:1018B00001018181704721B1828A42F0080282824F
:1018C00004E0828A4FF6F7731A4082827047028BD7
:1018D000D2B20283028B42EA01220283704721B115
:1018E000828A42F02002828204E0828A4FF6DF730D
:1018F0001A408282704721B1828A42F010028282AD
:1019000004E0828A4FF6EF731A4082827047828A1F
:101910004FF6FB731A408282828A0A4382827047A2
:1019200021B1828A42F00202828204E0828A4FF66A
:10193000FD731A40828270471AB1838A0B438382F7
:1019400002E0838A8B4383827047F0B5034600240C
:1019500000260025002040F66A17B94200D100BFDA
:101960001846C1F3421401F01F06012707FA06F5D5
:10197000012C01D10C3004E0022C01D1103000E028
:1019800014301AB107682F43076002E00768AF43BD
:101990000760F0BD02460020B1F5007F00D100BF16
:1019A00013880B400BB1012000E00020704701F4C8
:1019B0000072B2F5007F00D100BFCA4302807047B9
:1019C00070B50246002400230025002040F66A1668
:1019D000B14200D100BFC1F3421501F01F0301263F
:1019E00006FA03F3012D13D19689334017E0000066
:1019F000001001400044004000480040004C0040FE
:101A0000005000400014014000780040007C00407D
:101A1000022D02D1168A334001E0968A33400C121F
:101A2000012606FA04F41688344013B10CB10120E3
:101A300000E0002070BD10B50022002340F66A14BB
:101A4000A14200D100BF0A1201249440A3B2DC439A
:101A5000048010BD08B50022009200200021CA2297
:101A6000F94B1A6053221A60F74A183A126822F0AA
:101A7000A002F54B183B1A6000BFF34A183A1268EF
:101A800002F02001009A521C0092009AB2F5003F29
:101A900001D00029F1D0EC4A183A126802F0200275
:101AA0000AB1012000E00020FF22E74B1A6008BDC8
:101AB00008B50022009200200021E34A183A12687B
:101AC00002F04002E2B9421EDF4B183B1A6000BF31
:101AD000DD4A183A126802F04001009A521C009246
:101AE000009AB2F5803F01D00029F1D0D64A183AC9
:101AF000126802F040020AB1012002E0002000E07A
:101B0000012008BD38B50020009000240025CA201F
:101B1000CD49086053200860FFF7CAFF00B952E0C2
:101B20000020C9492439086042F20110091D0860EB
:101B3000081D006800F00700091D086000BFC248CA
:101B40001838006800F004040098401C00900098C9
:101B5000B0F5803F01D0002CF1D0BB4818380068A8
:101B600000F0040008B900252DE0B7481C380068D3
:101B70000020B5491C3908604FF6FF70B249103992
:101B80000860B248091F08600020AF490C3908609E
:101B9000091D0860091D0860AB4908310860AA49A1
:101BA00018310860A84920310860091D0860A6495D
:101BB00018390860A4491C310860FFF74BFF08B9C9
:101BC000002500E00125FF209F490860284638BD18
:101BD0009D481838006820F080009B49183908603B
:101BE000704730B504460025CA2097490860532045
:101BF0000860FFF75DFF00B91DE093481C380068DE
:101C000020F0400090491C390860084600682168AF
:101C100008438D491C3908608B491439A068086055
:101C200008460068A18840EA0140874914390860E5
:101C3000FFF7CEFF0125FF2083490860284630BD0D
:101C4000002101607F214160FF218160704718B150
:101C5000FF217D4A116004E0CA217B4A11605321B3
:101C60001160704730B504460025CA2076490860E7
:101C700053200860FFF71CFF00B914E044B172481C
:101C80001C38006840F010006F491C39086007E0FC
:101C90006D481C38006820F010006B491C39086042
:101CA000FFF796FF0125FF2067490860284630BDF1
:101CB000CA21654A11605321116040B162491C3943
:101CC000096841F02001604A1C3A116007E05E4952
:101CD0001C39096801F0DF015B4A1C3A1160FF21E1
:101CE000594A116070470146002204E0501CC2B2FC
:101CF000A1F10A00C1B20A29F8DA100741EA10601E
:101D00007047014600BF080900EB8000420001F067
:101D10000F001044C0B270472DE9F04105460C4653
:101D20000026002755B948481C38006800F04000DC
:101D300000B102E00020E07000BF0EE042481C3815
:101D4000006800F0400020B12078FFF7DAFF064677
:101D500002E00020E07000BF00BF55B12078000411
:101D6000617840EA0120A1780843E17840EA014621
:101D700011E02078FFF7B7FF4FEA00486078FFF7DF
:101D8000B2FF48EA0028A078FFF7ADFF48EA000854
:101D9000E07848EA0046CA202B49086053200860D2
:101DA000FFF786FE08B9002714E02948304026498D
:101DB00024390860FFF70CFF23481C38006800F046
:101DC000200030B9FFF746FE08B9002702E00127DE
:101DD00000E00127FF201C4908603846BDE8F0817B
:101DE0000021C170017041708170704770B5064666
:101DF0000C460025144824380068154900EA0105FE
:101E0000C5F305402070C5F30620607005F07F0023
:101E1000A07005F48000000CE0705EB92078FFF738
:101E200070FF20706078FFF76CFF6070A078FFF79C
:101E300068FFA07070BD00200349091D08680249B1
:101E4000203909687047000024280040FF007F0007
:101E50007F7F7F002DE9F04105460C4600260027D4
:101E60004DB9607800F01000102804D1607820F09F
:101E700010000A30607005B908E06078FFF741FF94
:101E80000646A078FFF73DFF064600BF55B1E07853
:101E90000004617840EA0120A1780843217840EAF3
:101EA000413611E0E078FFF71EFF4FEA0048607806
:101EB000FFF719FF48EA0028A078FFF714FF48EA67
:101EC0000008207848EA4036CA20FE4908605320BE
:101ED0000860FFF7EDFD08B9002714E0FA4830402C
:101EE000F84920390860FFF773FEF6481C3800688F
:101EF00000F0200030B9FFF7ADFD08B9002702E07F
:101F0000012700E00127FF20EE4908603846BDE8C0
:101F1000F08101210170817041700021C170704712
:101F200070B506460C460025E64820380068E649AC
:101F300000EA0105280CE070C5F30420607005F08C
:101F40003F00A070C5F3423020705EB9E078FFF723
:101F5000D8FEE0706078FFF7D4FE6070A078FFF7DD
:101F6000D0FEA07070BD2DE9F04105460E46144626
:101F700000276DB9D3481C38006800F0400000B15C
:101F800002E00020E07000BFA06800B91AE019E08C
:101F9000CC481C38006800F0400020B12078FFF7E2
:101FA000B0FE074602E00020E07000BFA06820B944
:101FB000207BFFF7A6FE074604E0207BFFF7A1FE8B
:101FC000074600BF95B120780004617840EA0120FF
:101FD000A1780843E17840EA0140217B40EA0160B2
:101FE000A1680843616840EA01071BE02078FFF719
:101FF0007AFE4FEA00486078FFF775FE48EA00284D
:10200000A078FFF770FE48EA0008E07848EA004848
:10201000207BFFF768FE48EA0060A168084361681A
:1020200040EA0107CA20A749086053200860B6F5B6
:10203000807F03D1A3480838076002E0A148001F51
:102040000760FF209F490860BDE8F0810021C17052
:102050000170417081708160012101730021416034
:1020600070472DE9F04106460F4614460025B7F5A6
:10207000807F03D193480838056802E09148001F2B
:102080000568C5F305402070C5F30620607005F0B3
:102090007F00A07005F48000000CE070C5F30560BF
:1020A000207305F08040A06005F0803060607EB94C
:1020B0002078FFF726FE20706078FFF722FE607020
:1020C000A078FFF71EFEA070207BFFF71AFE20739A
:1020D000BDE8F08138B502460024009400230020BA
:1020E000CA24784D2C6053242C6041B1754C1C3CA3
:1020F00024681443734D1C3D2C6001201EE0714C7C
:102100001C3C246894436F4D1C3D2C6000BF6D4CFB
:10211000183C246804EA1223009C641C0094009C70
:10212000B4F5803F01D0002BF1D0664C183C2468F8
:1021300004EA12240CB9002000E00120FF24614DC4
:102140002C6038BD30B50023CA245E4D2C6053246A
:102150002C6041EA0203B0F5807F03D1594C203452
:10216000236002E0574C24342360FF24554D2C603B
:1021700030BD01460020B1F5807F05D1514A2032A3
:102180001268C2F30E0004E04E4A24321268C2F311
:102190000E007047CA214B4A116053211160494912
:1021A0001C39096821F00701464A1C3A11601146A2
:1021B000096801431160FF21424A11607047CA213A
:1021C000404A1160532111603E4910390860FF21D7
:1021D000116070473B481038006880B2704718B5EE
:1021E00001460023009300220020CA23354C2360BF
:1021F0005323236049B1334B1C3B1B6843F480637A
:10220000304C1C3C236001201FE02E4B1C3B1B6804
:1022100023F480632B4C1C3C236000BF294B183BEC
:102220001B6803F00402009B5B1C0093009BB3F54A
:10223000803F01D0002AF1D0224B183B1B6803F0ED
:1022400004030BB9002000E00120FF231D4C236094
:1022500018BDCA221B4B1A6053221A60194A1C3A35
:10226000126822F48022174B1C3B1A601A4612682F
:1022700040EA01031A43134B1C3B1A60FF22114B27
:102280001A6070470F481C38006800F480207047BF
:10229000CA220C4B1A6053221A600A4A1C3A12686E
:1022A00022F4E002074B1C3B1A601A46126840EA0F
:1022B00001031A43034B1C3B1A60FF22014B1A60B7
:1022C00070470000242800403FFFFF0070B504461F
:1022D0000D460026CA20F649086053200860FFF723
:1022E000E7FB00B907E044EA0500F1490C39086052
:1022F000FFF76EFC0126FF20ED490860304670BDF7
:1023000030B504460025CA20E9490860532008601A
:10231000FFF7CEFB00B914E044B1E5481C38006873
:1023200040F08000E2491C39086007E0E0481C38B2
:10233000006820F08000DE491C390860FFF748FC87
:102340000125FF20DA490860284630BDCA21D84A55
:1023500011605321116040B1D5491C39096841F41D
:102360000001D34A1C3A116007E0D1491C390968C1
:1023700021F40001CE4A1C3A1160FF21CC4A1160C1
:102380007047CA21CA4A116053211160C8491C39DB
:10239000096821F40021C64A1C3A116011460968F7
:1023A00001431160FF21C24A1160704770B50346B6
:1023B00000200024CA25BE4E356053253560BC4D33
:1023C000183D2D6805F4803555B100E0641CB84D0A
:1023D000183D2D6805F4803515B1B4F5003FF5D1F1
:1023E000B34D183D2D6805F480353DB943EA01052C
:1023F0001543AF4E18363560012000E00020FF2560
:10240000AB4E356070BD10B50A460021A84B1C3B91
:102410001B6840F6080423EA04011AB140F4006383
:10242000194300E00143CA23A14C236053232360D6
:102430009F4B1C3B1960FF23236010BD2DE9F04129
:1024400080460C4615460026002799480C30006847
:10245000984900EA0106964810300068964900EA5B
:102460000107C6F305402070C6F30620607006F031
:102470007F00A07006F48000000CE0700020E8707F
:10248000C7F30420687007F03F00A870C7F342301C
:102490002870B8F1000F17D12078FFF732FC2070B8
:1024A0006078FFF72EFC6070A078FFF72AFCA07020
:1024B0006878FFF726FC6870A878FFF722FCA87000
:1024C0002878FFF71EFC2870BDE8F08178481430AA
:1024D0000068704741B9764A1C32126822EA40020D
:1024E000734B1C331A6007E0714A1C32126842EACF
:1024F00040026F4B1C331A60704739B16C4A1C3272
:10250000126802436A4B1C331A6006E0684A1C32A8
:1025100012688243664B1C331A60704764491C3151
:10252000096821F4C051624A1C32116011460968E1
:102530000143116070475E491C31096821F4E06174
:102540005B4A1C32116011460968014311607047F3
:1025500057491C31096821F4C041554A1C321160A9
:102560001146096801431160704740B150491C3160
:10257000096841F080014E4A1C32116007E04C4965
:102580001C31096821F08001494A1C3211607047F2
:1025900040B147491C31096821F40041444A1C32CA
:1025A000116007E042491C31096841F40041404A8A
:1025B0001C321160704708B5002200923C4A2C3250
:1025C0000092009A02EB80020092009A116008BD0E
:1025D00008B501460020009035482C300090009846
:1025E00000EB810000900098006808BD30491C3164
:1025F000096821F480312E4A1C32116011460968A5
:102600000143116070472A491C31096821F40031E7
:10261000274A1C3211601146096801431160704756
:1026200023491C31096821F48021214A1C321160A0
:1026300011460968014311607047F0B504460D4624
:1026400000270026CA201A4908605320086018484D
:102650001838006800F0080050B100E0761C1448FB
:102660001838006800F0080010B1B6F5805FF5D1A9
:102670000F481838006800F0080098B90C481C385A
:10268000006800F0100058B945EA04000849083114
:102690000860FFF7DFF908B9002704E0012702E02E
:1026A000002700E00027FF20014908603846F0BD00
:1026B000242800407F7F7F003FFFFF00CA223D4B60
:1026C0001A6053221A6091B13A4A1C3A126820F0FB
:1026D00004031A43374B1C3B1A60364A1C321268FB
:1026E00000F004031A43334B1C331A6011E0314AE3
:1026F0001C3A126820F004039A432E4B1C3B1A60CC
:102700002C4A1C32126800F004039A43294B1C33F4
:102710001A60FF22274B1A60704710B5014600204F
:102720000022244B183B1B68234C03EA040202EAF4
:1027300001030BB1012000E0002010BD81B241F087
:1027400080011C4A183A126802F0800262EA010114
:10275000184A183A1160704730B50146002000222F
:102760000023144C1C34246804F00402114C1C3C5B
:1027700024680C4002EAD13544EA05030D4C183CAC
:10278000246804EA11121BB194B20CB1012000E0DC
:10279000002030BD002101098AB242F08002054BC1
:1027A000183B1B6803F0800363EA0202014B183BED
:1027B0001A607047242800407F3F010010B50121B6
:1027C0000807FEF767FE00214FF08050FEF762FE1B
:1027D00010BD52490862704701460020504A1068F7
:1027E00020F0E0000843106070474C4908617047D2
:1027F0004A49A031086070474849A43108607047D1
:1028000001460020464A106820F44040084310600A
:10281000704742490864704740494864704730B186
:102820003F49096841F440213D4A116005E03C49B7
:10283000096821F440213A4A1160704718B101211A
:10284000364AD16202E00021344AD162704718B1A1
:102850000121324A916202E00021304A91627047C0
:102860002E494862704710B5024600202C4B18686C
:1028700040F6034398431043294B1860294B1B68CB
:1028800043F00403274C2360012901D130BF00E04D
:1028900020BF244B1B6823F00403224C236010BD8F
:1028A00010B5024600201E4B186840F603439843BB
:1028B00010431B4B18601B4B1B6843F00403194C5F
:1028C0002360012901D130BF00E020BF154B1B68F8
:1028D00023F00403134C236010BD1148006840F03E
:1028E00002000F4908600F48006840F004000D49DD
:1028F000086000BF00BF30BF704701460020084A93
:1029000052680A400AB1012000E0002070470449E3
:10291000096841EA8001024A1160704700000E42D6
:102920000070004010ED00E00E49086070470D494E
:10293000486070470B49886070474AF6AA200949E9
:10294000086070474CF6CC40064908607047014665
:102950000020044AD2680A400AB1012000E00020A9
:10296000704700000030004010B501210802FEF75A
:10297000A2FD00214FF48070FEF79DFD10BD30B523
:102980000246002000235068F84C20400D790C6866
:1029900044EA0524204350609068F54C2040D1E97A
:1029A00003542C438D682C434D7944EA450420435D
:1029B0009060D06A20F470000C7D641EE4B2234362
:1029C00040EA0350D06230BD0021016001714171C5
:1029D0008160C16001610121017570470021E54AF4
:1029E0001168E54A1140D0E900231A4383681A436D
:1029F000C3681A431143E14AC2F804137047002127
:102A0000016041608160C160704721B1826842F01D
:102A10000102826003E0826822F001028260704756
:102A20000A4600214168D64B194011434160704766
:102A30004162826270470A460021416821F01F010D
:102A400011434160704738B1CA49096841F4000137
:102A5000CA4AC2F8041306E0C649096821F4000115
:102A6000C64AC2F80413704738B1C249096841F434
:102A70008001C24AC2F8041306E0BE49096821F485
:102A80008001BE4AC2F804137047F0B504460D46F3
:102A900000200021092D11DDE068A5F10A0606EBF2
:102AA0004607072606FA07F18843A5F10A0606EB52
:102AB000460603FA06F10843E0600CE0206905EBE6
:102AC0004507072606FA07F1884305EB450603FA92
:102AD00006F108432061072A0FDA606B561E06EBE9
:102AE00086071F2606FA07F18843561E06EB860660
:102AF00005FA06F10843606322E00D2A0FDA206B25
:102B0000D61F06EB86071F2606FA07F18843D61F55
:102B100006EB860605FA06F10843206310E0E06A3A
:102B2000A2F10D0606EB86071F2606FA07F1884379
:102B3000A2F10D0606EB860605FA06F10843E062EF
:102B4000F0BD816841F080418160704701460020FE
:102B50008A6802F080420AB1012000E0002070473C
:102B600021B1826842F48062826003E0826822F4CC
:102B700080628260704721B1826842F00202826006
:102B800003E0826822F002028260704710B50A46B4
:102B900000210023416821F46041531E41EA433182
:102BA000416010BD21B1426842F40062426003E01E
:102BB000426822F40062426070470146C86C80B2ED
:102BC00070476C48001D0068704721B1826842F46C
:102BD0008072826003E0826822F4807282607047B3
:102BE00021B1826842F40072826003E0826822F4BC
:102BF00000728260704738B15E49096841F4005143
:102C00005E4AC2F8041306E05A49096821F40051EB
:102C10005A4AC2F804137047F0B50446154600201E
:102C200000220026092911DDE068A1F10A0707EB5F
:102C3000470C072707FA0CF29043A1F10A0707EBAC
:102C4000470703FA07F21043E0600CE0206901EB4C
:102C5000410C072707FA0CF2904301EB410703FAF6
:102C600007F210432061A06BC0F30156EF1C06F180
:102C7000010CA7EB0C0707EB870C1F2707FA0CF2D8
:102C80009043EF1C06F1010CA7EB0C0707EB87073D
:102C900001FA07F21043A063F0BD10B50A46002107
:102CA0000023816B21F44011531E41EA03518163DB
:102CB00010BD08B5002300930090009B0B440093C7
:102CC000009B1A6008BD0A460021816821F470212A
:102CD0001143816070470A460021816821F4401148
:102CE000114381607047816841F4800181607047C1
:102CF000014600208A6802F480020AB1012000E047
:102D00000020704721B1426842F48062426003E0D3
:102D1000426822F480624260704721B1426842F406
:102D20008052426003E0426822F480524260704761
:102D300008B5024600200090009201F12800009B97
:102D4000184400900098006880B208BD10B50B468A
:102D50000021D9B2012404FA01F11AB144680C43EC
:102D6000446002E044688C43446010BDFFFEFFFCF9
:102D7000FDF7FFC004230140E030FCFF00200140CC
:102D8000FFFD3FFF0246002013680B400BB10120FE
:102D900000E000207047CA430260704770B50246E9
:102DA0000020002300240B12556801268E4005EAFE
:102DB000060415681D4015B10CB1012000E000208B
:102DC00070BD00220A12D3430360704700204149BE
:102DD0000860091D0860091D0860091D08603E485B
:102DE0003C4914310860704700213A498279002A31
:102DF0003AD00A46126803689A430B461A600A1DC5
:102E0000126803689A430B1D1A60027911440A681C
:102E100003681A430A602F4A0832126803689A430B
:102E20002C4B08331A601A1D126803689A43294B09
:102E30000C331A604279102A0ED11A1F12680368E7
:102E40001A43244B08331A601A1D126803681A4388
:102E5000204B0C331A600DE01E49427911440A6878
:102E600003681A430A6005E0027911440A6803689E
:102E70009A430A6070470021016001710C21417181
:102E80000021817170471349103109680143114ACB
:102E9000103211607047014600200E4A1432126849
:102EA0000A400AB1012000E00020704709491431AE
:102EB0000860704701460020064A143212680A4032
:102EC0000AB1012000E00020704702491431086077
:102ED00070470000003C0140FFFF7F00704700008A
:102EE0000FB4044910B503AA029800F039F910BCD8
:102EF0005DF814FB000000202DE9F0410646002497
:102F000010687529314615A510D0AFF30080002850
:102F100002DA404212A507E031688A0701D511A5FF
:102F200002E0490704D510A5012401E0AFF30080B9
:102F300000210A2306F1240707E0B0FBF3F203FBAC
:102F40001200303078541046491C0028F5D1234631
:102F50002A463046BDE8F04100F0A8B80000000065
:102F60002D0000002B000000200000002DE9F05F84
:102F7000894604464FF0000ADFF824B1FB44C0F84C
:102F800020A02046E168884700287DD0252806D06B
:102F9000D4E901219047206A401C2062F1E7002516
:102FA0005F462046E16888472028064607DB312E29
:102FB00005D2B81910F8200C08B10543F1E7A807AD
:102FC00001D525F00405C4F81CA00027C4F818A0FA
:102FD0002A2E09D0304600F030F938B304EB8708C8
:102FE000303EC8F8186019E059F8041B204604EB7D
:102FF00087029161E1688847012F064618D1E06990
:10300000002820DA25F020051DE0D8F8180000EB94
:10301000800006EB40003038C8F818002046E16810
:103020008847064600F009F90028EED1012F0AD0A2
:103030002E2E08D12046E16888477F1C0646022FC5
:1030400045F02005C4DBA069002803DA404245F0C2
:103050000105A061E80701D025F01005A6B1A6F191
:103060004100192802D8203645F400654A46314609
:10307000204625604D46FDF7C1F860B1012807D014
:10308000ED1D25F0070000E007E000F1080978E7F2
:1030900005F1040975E730467AE7206ABDE8F09F3C
:1030A000580A000070477047704770472DE9F04795
:1030B0000D4699469246044600F1240801688806A8
:1030C00004D5E06921F01001216000E00120A84250
:1030D00001DD471B00E00027A1697A1902EB090016
:1030E000081AA0612078C00602D42046AFF3008001
:1030F000002608E0D4E901211AF806009047206A6A
:10310000401C761C20624E45F4DB2078C0060AD5B0
:103110002046AFF3008006E0D4E90121302090473B
:10312000206A401C2062381EA7F10107F4DC07E08A
:10313000D4E9012118F805009047206A401C20625C
:10314000281EA5F10105F3DC2046AFF300802078AE
:10315000000602D50220BDE8F0870120FBE7000051
:10316000074B70B50D467B4400F011F80446284625
:1031700000F020F810B14FF0FF3070BD204670BD58
:103180000B01000001694A1C02610878704700B514
:103190008FB0CDE901310021059105497944CDE990
:1031A000031011466846FFF7E1FE0FB000BD0000B6
:1031B000E5FFFFFF007B00F080007047754600F0E0
:1031C00029F8AE4605006946534620F007008546BB
:1031D00018B020B5FDF73AF8BDE820404FF00006E2
:1031E0004FF000074FF000084FF0000B21F00701EF
:1031F000AC46ACE8C009ACE8C009ACE8C009ACE832
:10320000C0098D4670470446AFF300802046FDF7A5
:1032100009F80000004870473000002000BFFEE7BA
:103220007047704700BFFEE700BFFEE7704770477A
:1032300070477047704700BFFEE730380A2801D258
:103240000120704700207047014600BF70470AE028
:1032500045F2082103E000BF00BF00BF00BF0A0025
:10326000A1F10101F7D10200A0F1010398B2EFD161
:103270007047000000BF054A128802F04002002A91
:10328000F9D0C2B2014B9A80704700000010014093
:10329000FDF75AFC4FF4E130FDF7C8FAFDF792F95B
:1032A0006420FFF7D4FF44A0FFF71AFE4AA0FFF7FF
:1032B00017FEFDF71CFAC5B21DB94BA0FFF710FEB3
:1032C00002E04EA0FFF70CFE51A0FFF709FEFFF74A
:1032D000A7FF554C00E0641E002CFCD1FDF707FA57
:1032E000C5B21DB940A0FFF7FBFD02E043A0FFF708
:1032F000F7FDFFF795FF4DA0FFF7F2FDFDF790FCFE
:10330000FDF78EFC0024FDF753FB2BE04CA0FFF7EC
:10331000E7FDFFF785FFFDF783FC0120FDF7BBFB11
:10332000FDF723FAFDF718FAFDF7D7FA4FF4E1306D
:10333000FDF77CFAFDF774FC45A0FFF7D1FDFFF720
:103340006FFFFDF76DFCFDF79BF8FDF74EFAC5B278
:10335000294643A0FFF7C4FD1E2C02D9FDF715FA3C
:1033600001E0641CD2E700BFFDF78AF8FDF73DFAE3
:10337000C5B229463AA0FFF7B3FD1CE03EA0FFF717
:10338000AFFD3DA0FFF7ACFD3BA0FFF7A9FD3AA0C4
:10339000FFF7A6FD38A0FFF7A3FD37A0FFF7A0FDBC
:1033A00035A0FFF79DFD34A0FFF79AFD32A0FFF78F
:1033B00097FDFDF735FCE1E7232323232320446514
:1033C000766963652073746172742E2E2E20232318
:1033D0002323230D0A0000000AB2E2CAD4CAA1B511
:1033E000E7C4A3CABD0000000A2D2D2DCDE2B2BF57
:1033F000B5E7D4B4C3BBB5E70A0000000A2D2D2DF4
:10340000CDE2B2BFB5E7D4B4D3D0B5E70A0000002F
:103410000A2D2D2DB6CFBFAACDE2B2BFB5E7D4B4E9
:103420002CB0B44F4B0A0000F04902000A2D2D2D9C
:10343000B6CFBFAACDE2C9E8B5E7D4B42E0A0000E2
:103440000A2D2D2DBDF8C8EBD0DDC3DF0A0000002A
:103450000A2D2D2DD0DDC3DFBBBDD0D10A00000069
:103460000D0A42617474436F756C6F6D6574727987
:10347000203D2025640A00000D0A43414EC4A3BF2D
:10348000E9B2E2CAD4CDEAB3C9210A0021F0004270
:10349000A2F16052B2F5801F01F0004328BFD2F1C3
:1034A0007F6C0BD95FEA001C43EAC20242EB50700A
:1034B00018BF704728BF20F001007047B2F5801F89
:1034C000BCBF184670474FEA410C1CF5001F02D2E2
:1034D000084600F07CBA70B500F020FA00000089C0
:1034E000FFF7F6BF4FF00040A0F5800070470000E6
:1034F0002DE9C04130B4DFF8A0C23CEA111418BF76
:103500003CEA131400F0EC8081EA03051CEA111474
:1035100044EAD57418BF1CEA131500F0C780A4EB69
:1035200005044FF0004545EAC12145EAC32341EABD
:10353000505143EA525304F17F74994204F5003428
:103540004FEAC0204FEAC22208BF904200F09C80A0
:103550004FEA13650FF24016765D4FEA134506FBFE
:1035600005F7C7F1807706FB07F74FEAD737A7FBC8
:1035700003687642C8F58038A7FB06CE38BFA8F1AD
:10358000010807FB08E64FF0000EA6FB028CE6FBE5
:1035900003CEDCF1000CCEF1004E38BFAEF1010ECF
:1035A000A6FB0C584FF000074FF00005E6FB0E8716
:1035B000A1FB08C6A0FB07CE16EB0E0645F10005E1
:1035C000E1FB076515F1E04E7EBFA4F580345FEAAC
:1035D00046066D4116F1800745F100054FEA1727B1
:1035E0004FEA066647EA0567A6F1DE46B6F1805F58
:1035F0004FEA15251FD9384624F0010C05EBC4719C
:10360000BCF1FE6F01EB0C1102D8F0BCBDE80081EB
:1036100024425CBF01F5801E9EEAC47F02D4F0BC48
:10362000BDE80081244238D4F0BCA1F1C041BDE81E
:10363000004100F0C1B94FEAD22242EA43524FEAB8
:10364000D323A7FB02864FEAD02040EA415007FB74
:1036500003661EEA0E0F4FEAD12105FB026658BF32
:10366000A6EB0056B6EB00564FEA520E4EEAC37E6A
:1036700018EB0E0E56EB530EBDD518EB02085E414B
:103680007F1C55F10005B6E74FF480154FF0000799
:103690004FF000064FF00008ADE7F0BC4FF000001F
:1036A00001F1C04101F00041BDE8008111EA0C1FA9
:1036B0000CEA131500D00CE013EA0C1F00F0258073
:1036C0004FF00000F0BC81EA030101F00041BDE8C9
:1036D0000081F0BC81EA0301BDE8004100F06CB953
:1036E000F0BCBDE8004170B500F018F9097EFC3E61
:1036F00000F007B881EA03014FF0000001F000413B
:10370000704781EA030100F057B9F0BC4FF00000A8
:103710002249BDE800417047FFFDFBF9F7F5F4F2DF
:10372000F0EEEDEBE9E8E6E4E3E1E0DEDDDBDAD85C
:10373000D7D5D4D3D1D0CFCDCCCBCAC8C7C6C5C4BA
:10374000C2C1C0BFBEBDBCBBBAB9B8B7B6B5B4B3D1
:10375000B2B1B0AFAEADACABAAA9A8A8A7A6A5A4BC
:10376000A3A3A2A1A09F9F9E9D9C9C9B9A99999880
:103770009797969595949393929191908F8F8E8E23
:103780008D8C8C8B8B8A89898888878786858584B0
:1037900084838382828181800000FF070000F87F9C
:1037A000B0FA80F310FA03F10AD0C3F11D0303F558
:1037B00080634FEA41504FEA035202EBD121704738
:1037C0004FF0000070470000DFF848C170B51CEAF8
:1037D000111E1EBF1CEA13159EEA0C0F95EA0C0F72
:1037E00000F06F8081EA030423EA4C134EEAD47E92
:1037F00021EA4C1141F4801143F48013AE44A1FB43
:10380000024CA0FB0365AEF17F7E361955EB0C052B
:10381000A1FB034C4CF10003A0FB021C16EB0C06B1
:10382000654153F10003094218BF46F0010613F445
:10383000007F0BD14FEA03314FEA0530340341EAF0
:10384000155140EA16506FF003020AE04FEAC32117
:103850004FEAC520F40241EA555140EA56506FF054
:10386000020202EB2E4201EB025585EACE710AD02C
:103870005FEA440C18BF24F0004450F1000041F10D
:10388000000120EAD47040F2FE7C624500D270BD97
:10389000A84214BF4FF080444FF04044002E08BFB0
:1038A0000024BEF1806FA8BFA1F1C041BDE8704007
:1038B00080F282804FF0000001F1C04101F0004130
:1038C00070479EEA0C0F0CEA131518BF95EA0C0F0F
:1038D00006D04FF0000081EA030E0EF0004170BDEB
:1038E00000F01CF88900013E00F007B800F009B8AC
:1038F0004FEA430C5FEA5C5C08D081EA030100F008
:103900005BB84FEA410C5FEA5C5CF6D14FF0000017
:10391000014970470000FF070000F87F0EF1020E1A
:103920002EF0030E5EF8046B364205D4012A43EBF9
:10393000030515F5001F12D8012841EB010C1CF5F9
:10394000001F0CD80ED14FEAD17C15F5001F0CEBEF
:103950004C0C0CF1020C08BF4CEBD37C04E04FF094
:10396000080C01E04FEAD37C0CEB4C0526FA05F677
:1039700006F00706B6F1040C06D20EEB860CBDE885
:1039800070404CF0010C6047DFE80CF0090B0202BC
:103990004FF000414FF00000A1F5002170BD194625
:1039A0001046012851EB010418BFD4F5001484BF60
:1039B000002001F0004170BD0808A0F500114FEA99
:1039C000310170474FF04070E1EE100A7047FF215F
:1039D00041EAD050C0057047040000080000000014
:1039E0000000000200010000100000000C3A020874
:1039F0000000002030000000C40102083C3A020828
:103A00003000002060060000E00102080000000015
:103A1000007A030A00000000000000000102030415
:103A20000607080900000000000000000001020372
:0C3A30000401020304060708090000005E
:040000050802018963
:00000001FF
